{
  "contractName": "myOracle",
  "abi": [
    {
      "anonymous": false,
      "inputs": [
        {
          "indexed": false,
          "name": "me",
          "type": "address"
        },
        {
          "indexed": false,
          "name": "data",
          "type": "string"
        }
      ],
      "name": "ToOracle",
      "type": "event"
    },
    {
      "constant": false,
      "inputs": [
        {
          "name": "client_address",
          "type": "address"
        },
        {
          "name": "data_input",
          "type": "string"
        }
      ],
      "name": "getOracleData",
      "outputs": [],
      "payable": false,
      "stateMutability": "nonpayable",
      "type": "function"
    }
  ],
  "bytecode": "0x608060405234801561001057600080fd5b506101ae806100206000396000f3fe608060405234801561001057600080fd5b5060043610610048576000357c010000000000000000000000000000000000000000000000000000000090048063210d1a401461004d575b600080fd5b6100e46004803603604081101561006357600080fd5b81019080803573ffffffffffffffffffffffffffffffffffffffff169060200190929190803590602001906401000000008111156100a057600080fd5b8201836020820111156100b257600080fd5b803590602001918460018302840111640100000000831117156100d457600080fd5b90919293919293905050506100e6565b005b7f9220bf40e7f4a9d32bb47c3a2d9f2d3e671f2c389bdb09c88540f7b076d56762838383604051808473ffffffffffffffffffffffffffffffffffffffff1673ffffffffffffffffffffffffffffffffffffffff168152602001806020018281038252848482818152602001925080828437600081840152601f19601f82011690508083019250505094505050505060405180910390a150505056fea165627a7a72305820e51dbab992e0242800f235016d89056f7a161fd3d947f688a6bad1e8953c0b430029",
  "source": "pragma solidity ^0.5.0;\r\n\r\ncontract myOracle {\r\n    event ToOracle(address me, string data);\r\n    function getOracleData(address client_address, \r\n                           string calldata data_input) external {\r\n        emit ToOracle(client_address, data_input);\r\n    }\r\n}\r\n",
  "sourcePath": "C:\\Users\\node\\Desktop\\code\\contracts\\myOracle.sol",
  "compiler": {
    "name": "solc",
    "version": "0.5.2+commit.1df8f40c.Emscripten.clang"
  },
  "schemaVersion": "3.0.2",
  "updatedAt": "2019-03-08T08:57:44.452Z",
  "devdoc": {
    "methods": {}
  },
  "userdoc": {
    "methods": {}
  }
}