{
  "contractName": "Oracle",
  "abi": [
    {
      "constant": true,
      "inputs": [],
      "name": "cbAddress",
      "outputs": [
        {
          "name": "",
          "type": "address"
        }
      ],
      "payable": false,
      "stateMutability": "view",
      "type": "function",
      "signature": "0xc281d19e"
    },
    {
      "inputs": [],
      "payable": false,
      "stateMutability": "nonpayable",
      "type": "constructor",
      "signature": "constructor"
    },
    {
      "anonymous": false,
      "inputs": [
        {
          "indexed": false,
          "name": "query",
          "type": "string"
        }
      ],
      "name": "QueryEvent",
      "type": "event",
      "signature": "0xe4d58165cff96dacc706956dcb92eb8b1dd889bccddcb47a79f63dd52f3b072c"
    },
    {
      "constant": false,
      "inputs": [
        {
          "name": "_cbAddress",
          "type": "address"
        }
      ],
      "name": "setCbAddress",
      "outputs": [],
      "payable": false,
      "stateMutability": "nonpayable",
      "type": "function",
      "signature": "0xb62a717c"
    },
    {
      "constant": false,
      "inputs": [
        {
          "name": "_query",
          "type": "string"
        }
      ],
      "name": "query",
      "outputs": [
        {
          "name": "",
          "type": "string"
        }
      ],
      "payable": false,
      "stateMutability": "nonpayable",
      "type": "function",
      "signature": "0x7c261929"
    }
  ],
  "bytecode": "0x608060405234801561001057600080fd5b5061035f806100206000396000f3fe608060405234801561001057600080fd5b506004361061005e576000357c0100000000000000000000000000000000000000000000000000000000900480637c26192914610063578063b62a717c14610197578063c281d19e146101db575b600080fd5b61011c6004803603602081101561007957600080fd5b810190808035906020019064010000000081111561009657600080fd5b8201836020820111156100a857600080fd5b803590602001918460018302840111640100000000831117156100ca57600080fd5b91908080601f016020809104026020016040519081016040528093929190818152602001838380828437600081840152601f19601f820116905080830192505050505050509192919290505050610225565b6040518080602001828103825283818151815260200191508051906020019080838360005b8381101561015c578082015181840152602081019050610141565b50505050905090810190601f1680156101895780820380516001836020036101000a031916815260200191505b509250505060405180910390f35b6101d9600480360360208110156101ad57600080fd5b81019080803573ffffffffffffffffffffffffffffffffffffffff1690602001909291905050506102cb565b005b6101e361030e565b604051808273ffffffffffffffffffffffffffffffffffffffff1673ffffffffffffffffffffffffffffffffffffffff16815260200191505060405180910390f35b60607fe4d58165cff96dacc706956dcb92eb8b1dd889bccddcb47a79f63dd52f3b072c826040518080602001828103825283818151815260200191508051906020019080838360005b8381101561028957808201518184015260208101905061026e565b50505050905090810190601f1680156102b65780820380516001836020036101000a031916815260200191505b509250505060405180910390a1819050919050565b806000806101000a81548173ffffffffffffffffffffffffffffffffffffffff021916908373ffffffffffffffffffffffffffffffffffffffff16021790555050565b6000809054906101000a900473ffffffffffffffffffffffffffffffffffffffff168156fea165627a7a7230582032d482dc6bd2f9542494cd45c7dfcbbec8595a9b103c678c5c5db8ff04f36b780029",
  "source": "pragma solidity ^0.5.2;\r\n\r\ncontract Oracle {\r\n    address public cbAddress; // callback address\r\n\r\n    constructor ()public  {\r\n\r\n    }\r\n\r\n    event QueryEvent(string query);\r\n\r\n    function setCbAddress(address _cbAddress) public {\r\n        cbAddress = _cbAddress;\r\n    }\r\n\r\n    function query(string memory _query)public returns (string memory) {\r\n        emit QueryEvent(_query);\r\n        return _query;\r\n    }\r\n}\r\n",
  "sourcePath": "C:/Users/node/Desktop/pjpj/code/contracts/Oracle.sol",
  "compiler": {
    "name": "solc",
    "version": "0.5.2+commit.1df8f40c.Emscripten.clang"
  },
  "schemaVersion": "3.0.6",
  "updatedAt": "2019-04-23T09:07:15.671Z",
  "devdoc": {
    "methods": {}
  },
  "userdoc": {
    "methods": {}
  }
}