{
  "contractName": "UsingMyOracle",
  "abi": [
    {
      "constant": false,
      "inputs": [
        {
          "name": "result",
          "type": "string"
        }
      ],
      "name": "_callback",
      "outputs": [],
      "payable": false,
      "stateMutability": "nonpayable",
      "type": "function"
    }
  ],
  "bytecode": "0x608060405234801561001057600080fd5b50610137806100206000396000f3fe608060405234801561001057600080fd5b5060043610610048576000357c0100000000000000000000000000000000000000000000000000000000900480638ec064701461004d575b600080fd5b6101066004803603602081101561006357600080fd5b810190808035906020019064010000000081111561008057600080fd5b82018360208201111561009257600080fd5b803590602001918460018302840111640100000000831117156100b457600080fd5b91908080601f016020809104026020016040519081016040528093929190818152602001838380828437600081840152601f19601f820116905080830192505050505050509192919290505050610108565b005b5056fea165627a7a72305820fc17a1beae419b3fa8a3bb4d48197d3e7ab225e09be9c7aaf6f80f562805951c0029",
  "source": "pragma solidity ^0.5.2;\r\n\r\n// Oracle interface\r\ncontract Oracle {\r\n    address public cbAddress;\r\n    function query(string memory _query) public returns (string memory);\r\n}\r\n\r\n// OracleResolver interface\r\ncontract OracleResolver {\r\n    function getOracleAddress() pure public returns(address);\r\n}\r\n\r\n// 給dapp開發者使用的合約\r\ncontract UsingMyOracle {\r\n    OracleResolver resolver;\r\n    Oracle oracle;\r\n\r\n    modifier myOracleAPI {\r\n        if (address(resolver) == address(0)) {\r\n            // 指定OracleResolver的合約地址，要替換成你自己的\r\n            resolver = OracleResolver(0xE3e9035a6E7499Df755B227319DF4264Ea9D8c5f);\r\n            oracle = Oracle(resolver.getOracleAddress());\r\n        }\r\n        _;\r\n    }\r\n\r\n    function myOracleQuery(string memory _query) internal myOracleAPI returns(string memory\r\n    ) {\r\n        return oracle.query(_query);\r\n    }\r\n\r\n    function _callback(string memory result) public {\r\n        // do nothing, 只是確保Oracle有一個_callback可以使用\r\n    }\r\n}\r\n\r\n\r\ncontract Auction is UsingMyOracle{\r\n    // static\r\n    address public owner;\r\n    uint public bidIncrement;\r\n    uint public startBlock;\r\n    uint public endBlock;\r\n    string public ipfsHash;\r\n\r\n    // state\r\n    bool public canceled;\r\n    uint public highestBindingBid;\r\n    address public highestBidder;\r\n    mapping(address => uint256) public fundsByBidder;\r\n    bool ownerHasWithdrawn;\r\n\r\n    event LogBid(address bidder, uint bid, address highestBidder, uint highestBid, uint highestBindingBid);\r\n    event LogWithdrawal(address withdrawer, address withdrawalAccount, uint amount);\r\n    event LogCanceled();\r\n    mapping(uint => string) actions;\r\n    uint actionsIndex=0; \r\n\r\n    // 輔助的event，沒有也不影響功能\r\n    event newMyOracleQuery(string description);\r\n    event Result(string result);\r\n    \r\n\r\n    constructor (address _owner, uint _bidIncrement, uint _endBlock, string memory _ipfsHash) public{\r\n        owner = _owner;\r\n        bidIncrement = _bidIncrement;\r\n        endBlock = _endBlock;\r\n        ipfsHash = _ipfsHash;\r\n        actions[actionsIndex]=myOracleQuery(\"A new Auction started!\");\r\n        actionsIndex++;\r\n        emit newMyOracleQuery(\"MyOracle query was sent, standing by for the answer..\");\r\n    }\r\n    \r\n    \r\n    // override\r\n    function _callback( string memory result) public  {\r\n        actions[actionsIndex] = result;\r\n        emit Result(result);\r\n    }\r\n    \r\n    function queryResult() view public returns (string memory) {\r\n        return actions[actionsIndex];\r\n    }\r\n\r\n    function getHighestBid()public\r\n        view\r\n        returns (uint)\r\n    {\r\n        return fundsByBidder[highestBidder];\r\n    }\r\n\r\n    function placeBid()public\r\n        payable\r\n        onlyAfterStart\r\n        onlyBeforeEnd\r\n        onlyNotCanceled\r\n        onlyNotOwner\r\n        returns (bool success) \r\n    {\r\n        // reject payments of 0 ETH\r\n        if (msg.value == 0) revert();\r\n\r\n        // calculate the user's total bid based on the current amount they've sent to the contract\r\n        // plus whatever has been sent with this transaction\r\n        uint newBid = fundsByBidder[msg.sender] + msg.value;\r\n\r\n        // if the user isn't even willing to overbid the highest binding bid, there's nothing for us\r\n        // to do except revert the transaction.\r\n        if (newBid <= highestBindingBid) revert();\r\n\r\n        // grab the previous highest bid (before updating fundsByBidder, in case msg.sender is the\r\n        // highestBidder and is just increasing their maximum bid).\r\n        uint highestBid = fundsByBidder[highestBidder];\r\n\r\n        fundsByBidder[msg.sender] = newBid;\r\n\r\n        if (newBid <= highestBid) {\r\n            // if the user has overbid the highestBindingBid but not the highestBid, we simply\r\n            // increase the highestBindingBid and leave highestBidder alone.\r\n\r\n            // note that this case is impossible if msg.sender == highestBidder because you can never\r\n            // bid less ETH than you've already bid.\r\n\r\n            highestBindingBid = min(newBid + bidIncrement, highestBid);\r\n        } else {\r\n            // if msg.sender is already the highest bidder, they must simply be wanting to raise\r\n            // their maximum bid, in which case we shouldn't increase the highestBindingBid.\r\n\r\n            // if the user is NOT highestBidder, and has overbid highestBid completely, we set them\r\n            // as the new highestBidder and recalculate highestBindingBid.\r\n\r\n            if (msg.sender != highestBidder) {\r\n                highestBidder = msg.sender;\r\n                highestBindingBid = min(newBid, highestBid + bidIncrement);\r\n            }\r\n            highestBid = newBid;\r\n        }\r\n        actions[actionsIndex]=myOracleQuery(\"Placing Bid...\");\r\n        actionsIndex++;\r\n        emit LogBid(msg.sender, newBid, highestBidder, highestBid, highestBindingBid);\r\n        return true;\r\n    }\r\n\r\n    function min(uint a, uint b)\r\n        private\r\n        pure\r\n        returns (uint)\r\n    {\r\n        if (a < b) return a;\r\n        return b;\r\n    }\r\n\r\n    function cancelAuction()\r\n        onlyOwner\r\n        onlyBeforeEnd\r\n        onlyNotCanceled\r\n        public\r\n        returns (bool success)\r\n    {\r\n        canceled = true;\r\n        actions[actionsIndex]=myOracleQuery(\"Auction is cancel!\");\r\n        actionsIndex++;\r\n        emit LogCanceled();\r\n        return true;\r\n    }\r\n\r\n    function withdraw()\r\n        onlyEndedOrCanceled\r\n        public\r\n        returns (bool success)\r\n    {\r\n        address withdrawalAccount;\r\n        uint withdrawalAmount;\r\n\r\n        if (canceled) {\r\n            // if the auction was canceled, everyone should simply be allowed to withdraw their funds\r\n            withdrawalAccount = msg.sender;\r\n            withdrawalAmount = fundsByBidder[withdrawalAccount];\r\n\r\n\r\n        } else {\r\n            // the auction finished without being canceled\r\n\r\n            if (msg.sender == owner) {\r\n                // the auction's owner should be allowed to withdraw the highestBindingBid\r\n                withdrawalAccount = highestBidder;\r\n                withdrawalAmount = highestBindingBid;\r\n                ownerHasWithdrawn = true;\r\n\r\n            } else if (msg.sender == highestBidder) {\r\n                // the highest bidder should only be allowed to withdraw the difference between their\r\n                // highest bid and the highestBindingBid\r\n                withdrawalAccount = highestBidder;\r\n                if (ownerHasWithdrawn) {\r\n                    withdrawalAmount = fundsByBidder[highestBidder];\r\n                } else {\r\n                    withdrawalAmount = fundsByBidder[highestBidder] - highestBindingBid;\r\n                }\r\n\r\n            } else {\r\n                // anyone who participated but did not win the auction should be allowed to withdraw\r\n                // the full amount of their funds\r\n                withdrawalAccount = msg.sender;\r\n                withdrawalAmount = fundsByBidder[withdrawalAccount];\r\n            }\r\n        }\r\n\r\n        if (withdrawalAmount == 0) revert();\r\n\r\n        fundsByBidder[withdrawalAccount] -= withdrawalAmount;\r\n\r\n        // send the funds\r\n        if (!msg.sender.send(withdrawalAmount)) revert();\r\n\r\n        emit LogWithdrawal(msg.sender, withdrawalAccount, withdrawalAmount);\r\n        actions[actionsIndex]=myOracleQuery(\"Returning Funds!\");\r\n        actionsIndex++;\r\n        return true;\r\n    }\r\n\r\n    modifier onlyOwner {\r\n        if (msg.sender != owner) revert();\r\n        _;\r\n    }\r\n\r\n    modifier onlyNotOwner {\r\n        if (msg.sender == owner) revert();\r\n        _;\r\n    }\r\n\r\n    modifier onlyAfterStart {\r\n        if (block.number < startBlock) revert();\r\n        _;\r\n    }\r\n\r\n    modifier onlyBeforeEnd {\r\n        if (block.number > endBlock) revert();\r\n        _;\r\n    }\r\n\r\n    modifier onlyNotCanceled {\r\n        if (canceled) revert();\r\n        _;\r\n    }\r\n\r\n    modifier onlyEndedOrCanceled {\r\n        if (block.number < endBlock && !canceled) revert();\r\n        _;\r\n    }\r\n}",
  "sourcePath": "C:\\Users\\node\\Desktop\\pjpj\\code\\contracts\\Auction.sol",
  "compiler": {
    "name": "solc",
    "version": "0.5.2+commit.1df8f40c.Emscripten.clang"
  },
  "schemaVersion": "3.0.6",
  "updatedAt": "2019-04-23T09:07:13.065Z",
  "devdoc": {
    "methods": {}
  },
  "userdoc": {
    "methods": {}
  }
}