{
  "contractName": "AuctionFactory",
  "abi": [
    {
      "constant": true,
      "inputs": [
        {
          "name": "",
          "type": "uint256"
        }
      ],
      "name": "auctions",
      "outputs": [
        {
          "name": "",
          "type": "address"
        }
      ],
      "payable": false,
      "stateMutability": "view",
      "type": "function",
      "signature": "0x571a26a0"
    },
    {
      "inputs": [],
      "payable": false,
      "stateMutability": "nonpayable",
      "type": "constructor",
      "signature": "constructor"
    },
    {
      "anonymous": false,
      "inputs": [
        {
          "indexed": false,
          "name": "auctionContract",
          "type": "address"
        },
        {
          "indexed": false,
          "name": "owner",
          "type": "address"
        },
        {
          "indexed": false,
          "name": "numAuctions",
          "type": "uint256"
        },
        {
          "indexed": false,
          "name": "allAuctions",
          "type": "address[]"
        }
      ],
      "name": "AuctionCreated",
      "type": "event",
      "signature": "0x0d314047f0d1e39dbbd521f0844c35332083a15926b906540faa68e1a4262b68"
    },
    {
      "anonymous": false,
      "inputs": [
        {
          "indexed": false,
          "name": "",
          "type": "address"
        }
      ],
      "name": "getAddress",
      "type": "event",
      "signature": "0xae22c57db0d6f837c963673636539f7f08422a2bdd477a0ab76307205bc4a370"
    },
    {
      "anonymous": false,
      "inputs": [
        {
          "indexed": false,
          "name": "",
          "type": "uint256"
        }
      ],
      "name": "getBlockNumber",
      "type": "event",
      "signature": "0x50c0fbe4c022d1d92306c9777471b26c7abffc120d9081211b4de64fec304225"
    },
    {
      "constant": false,
      "inputs": [
        {
          "name": "endBid",
          "type": "uint256"
        },
        {
          "name": "_oracle",
          "type": "address"
        }
      ],
      "name": "createAuction",
      "outputs": [
        {
          "name": "",
          "type": "address"
        }
      ],
      "payable": false,
      "stateMutability": "nonpayable",
      "type": "function",
      "signature": "0x0ce289bd"
    },
    {
      "constant": true,
      "inputs": [],
      "name": "allAuctions",
      "outputs": [
        {
          "name": "",
          "type": "address[]"
        }
      ],
      "payable": false,
      "stateMutability": "view",
      "type": "function",
      "signature": "0x1bbcd4a5"
    }
  ],
  "bytecode": "0x608060405234801561001057600080fd5b50611d7b806100206000396000f3fe608060405234801561001057600080fd5b506004361061005e576000357c0100000000000000000000000000000000000000000000000000000000900480630ce289bd146100635780631bbcd4a5146100f1578063571a26a014610150575b600080fd5b6100af6004803603604081101561007957600080fd5b8101908080359060200190929190803573ffffffffffffffffffffffffffffffffffffffff1690602001909291905050506101be565b604051808273ffffffffffffffffffffffffffffffffffffffff1673ffffffffffffffffffffffffffffffffffffffff16815260200191505060405180910390f35b6100f9610543565b6040518080602001828103825283818151815260200191508051906020019060200280838360005b8381101561013c578082015181840152602081019050610121565b505050509050019250505060405180910390f35b61017c6004803603602081101561016657600080fd5b81019080803590602001909291905050506105d1565b604051808273ffffffffffffffffffffffffffffffffffffffff1673ffffffffffffffffffffffffffffffffffffffff16815260200191505060405180910390f35b6000816000806101000a81548173ffffffffffffffffffffffffffffffffffffffff021916908373ffffffffffffffffffffffffffffffffffffffff16021790555060003384846040516102119061060d565b808473ffffffffffffffffffffffffffffffffffffffff1673ffffffffffffffffffffffffffffffffffffffff1681526020018381526020018273ffffffffffffffffffffffffffffffffffffffff1673ffffffffffffffffffffffffffffffffffffffff1681526020019350505050604051809103906000f08015801561029d573d6000803e3d6000fd5b5090507fae22c57db0d6f837c963673636539f7f08422a2bdd477a0ab76307205bc4a37081604051808273ffffffffffffffffffffffffffffffffffffffff1673ffffffffffffffffffffffffffffffffffffffff16815260200191505060405180910390a16000809054906101000a900473ffffffffffffffffffffffffffffffffffffffff1673ffffffffffffffffffffffffffffffffffffffff166382a4a5a933836040518363ffffffff167c0100000000000000000000000000000000000000000000000000000000028152600401808373ffffffffffffffffffffffffffffffffffffffff1673ffffffffffffffffffffffffffffffffffffffff168152602001806020018373ffffffffffffffffffffffffffffffffffffffff1673ffffffffffffffffffffffffffffffffffffffff168152602001828103825260168152602001807f437265617465642061206e65772041756374696f6e21000000000000000000008152506020019350505050602060405180830381600087803b15801561042c57600080fd5b505af1158015610440573d6000803e3d6000fd5b505050506040513d602081101561045657600080fd5b8101908080519060200190929190505050506000809054906101000a900473ffffffffffffffffffffffffffffffffffffffff1673ffffffffffffffffffffffffffffffffffffffff16631c56ecad826040518263ffffffff167c0100000000000000000000000000000000000000000000000000000000028152600401808273ffffffffffffffffffffffffffffffffffffffff1673ffffffffffffffffffffffffffffffffffffffff168152602001915050600060405180830381600087803b15801561052457600080fd5b505af1158015610538573d6000803e3d6000fd5b505050505092915050565b606060018054806020026020016040519081016040528092919081815260200182805480156105c757602002820191906000526020600020905b8160009054906101000a900473ffffffffffffffffffffffffffffffffffffffff1673ffffffffffffffffffffffffffffffffffffffff168152602001906001019080831161057d575b5050505050905090565b600181815481106105de57fe5b906000526020600020016000915054906101000a900473ffffffffffffffffffffffffffffffffffffffff1681565b6117358061061b8339019056fe60806040526000600355600060045534801561001a57600080fd5b506040516060806117358339810180604052606081101561003a57600080fd5b81019080805190602001909291908051906020019092919080519060200190929190505050826000806101000a81548173ffffffffffffffffffffffffffffffffffffffff021916908373ffffffffffffffffffffffffffffffffffffffff1602179055508160028190555080600860016101000a81548173ffffffffffffffffffffffffffffffffffffffff021916908373ffffffffffffffffffffffffffffffffffffffff1602179055507fdd43cf5f276d0a2edb852a6d25b452872549a2a11c9a80ca40d5f074a4f1d8516000809054906101000a900473ffffffffffffffffffffffffffffffffffffffff16600354600254600560019054906101000a900473ffffffffffffffffffffffffffffffffffffffff16600654600454604051808773ffffffffffffffffffffffffffffffffffffffff1673ffffffffffffffffffffffffffffffffffffffff1681526020018681526020018581526020018473ffffffffffffffffffffffffffffffffffffffff1673ffffffffffffffffffffffffffffffffffffffff168152602001838152602001828152602001965050505050505060405180910390a150505061153a806101fb6000396000f3fe6080604052600436106100c4576000357c0100000000000000000000000000000000000000000000000000000000900480638da5cb5b116100815780638da5cb5b146101d75780638fa8b7901461022e57806391f901571461025d578063b3cc167a146102b4578063ce10cf80146102df578063ecfc7ecc14610344576100c4565b80633ccfd60b146100c95780633f9942ff146100f8578063494e2b06146101275780634979440a146101565780635b5a62d9146101815780638bae720b146101ac575b600080fd5b3480156100d557600080fd5b506100de610366565b604051808215151515815260200191505060405180910390f35b34801561010457600080fd5b5061010d610a92565b604051808215151515815260200191505060405180910390f35b34801561013357600080fd5b5061013c610aa5565b604051808215151515815260200191505060405180910390f35b34801561016257600080fd5b5061016b610adc565b6040518082815260200191505060405180910390f35b34801561018d57600080fd5b50610196610b45565b6040518082815260200191505060405180910390f35b3480156101b857600080fd5b506101c1610b4b565b6040518082815260200191505060405180910390f35b3480156101e357600080fd5b506101ec610b51565b604051808273ffffffffffffffffffffffffffffffffffffffff1673ffffffffffffffffffffffffffffffffffffffff16815260200191505060405180910390f35b34801561023a57600080fd5b50610243610b76565b604051808215151515815260200191505060405180910390f35b34801561026957600080fd5b50610272610eb2565b604051808273ffffffffffffffffffffffffffffffffffffffff1673ffffffffffffffffffffffffffffffffffffffff16815260200191505060405180910390f35b3480156102c057600080fd5b506102c9610ed8565b6040518082815260200191505060405180910390f35b3480156102eb57600080fd5b5061032e6004803603602081101561030257600080fd5b81019080803573ffffffffffffffffffffffffffffffffffffffff169060200190929190505050610ede565b6040518082815260200191505060405180910390f35b61034c610ef6565b604051808215151515815260200191505060405180910390f35b60006002546003541080156103885750600560009054906101000a900460ff16155b1561039257600080fd5b600560019054906101000a900473ffffffffffffffffffffffffffffffffffffffff1673ffffffffffffffffffffffffffffffffffffffff163373ffffffffffffffffffffffffffffffffffffffff1614156103ed57600080fd5b3373ffffffffffffffffffffffffffffffffffffffff166000809054906101000a900473ffffffffffffffffffffffffffffffffffffffff1673ffffffffffffffffffffffffffffffffffffffff161415801561048957506000600760003373ffffffffffffffffffffffffffffffffffffffff1673ffffffffffffffffffffffffffffffffffffffff16815260200190815260200160002054145b8061054e57503373ffffffffffffffffffffffffffffffffffffffff166000809054906101000a900473ffffffffffffffffffffffffffffffffffffffff1673ffffffffffffffffffffffffffffffffffffffff1614801561054d5750600060076000600560019054906101000a900473ffffffffffffffffffffffffffffffffffffffff1673ffffffffffffffffffffffffffffffffffffffff1673ffffffffffffffffffffffffffffffffffffffff1681526020019081526020016000205414155b5b1561055857600080fd5b600080600560009054906101000a900460ff16156105ba57339150600760008373ffffffffffffffffffffffffffffffffffffffff1673ffffffffffffffffffffffffffffffffffffffff1681526020019081526020016000205490506106ff565b6000809054906101000a900473ffffffffffffffffffffffffffffffffffffffff1673ffffffffffffffffffffffffffffffffffffffff163373ffffffffffffffffffffffffffffffffffffffff1614156106b857600560019054906101000a900473ffffffffffffffffffffffffffffffffffffffff16915060076000600560019054906101000a900473ffffffffffffffffffffffffffffffffffffffff1673ffffffffffffffffffffffffffffffffffffffff1673ffffffffffffffffffffffffffffffffffffffff1681526020019081526020016000205490506001600860006101000a81548160ff0219169083151502179055506106fe565b339150600760008373ffffffffffffffffffffffffffffffffffffffff1673ffffffffffffffffffffffffffffffffffffffff1681526020019081526020016000205490505b5b3373ffffffffffffffffffffffffffffffffffffffff166108fc829081150290604051600060405180830381858888f1935050505061073d57600080fd5b7fdd43cf5f276d0a2edb852a6d25b452872549a2a11c9a80ca40d5f074a4f1d8516000809054906101000a900473ffffffffffffffffffffffffffffffffffffffff16600354600254600560019054906101000a900473ffffffffffffffffffffffffffffffffffffffff16600654600454604051808773ffffffffffffffffffffffffffffffffffffffff1673ffffffffffffffffffffffffffffffffffffffff1681526020018681526020018581526020018473ffffffffffffffffffffffffffffffffffffffff1673ffffffffffffffffffffffffffffffffffffffff168152602001838152602001828152602001965050505050505060405180910390a17f0ec497a8ae5b1ba29c60470ef651def995fac3deebbdcc56c47a4e5f51a4c2bd338383604051808473ffffffffffffffffffffffffffffffffffffffff1673ffffffffffffffffffffffffffffffffffffffff1681526020018373ffffffffffffffffffffffffffffffffffffffff1673ffffffffffffffffffffffffffffffffffffffff168152602001828152602001935050505060405180910390a16000600760008473ffffffffffffffffffffffffffffffffffffffff1673ffffffffffffffffffffffffffffffffffffffff16815260200190815260200160002081905550600860019054906101000a900473ffffffffffffffffffffffffffffffffffffffff1673ffffffffffffffffffffffffffffffffffffffff166382a4a5a983306040518363ffffffff167c0100000000000000000000000000000000000000000000000000000000028152600401808373ffffffffffffffffffffffffffffffffffffffff1673ffffffffffffffffffffffffffffffffffffffff168152602001806020018373ffffffffffffffffffffffffffffffffffffffff1673ffffffffffffffffffffffffffffffffffffffff168152602001828103825260108152602001807f57697468647261776564204d6f6e6579000000000000000000000000000000008152506020019350505050602060405180830381600087803b158015610a4d57600080fd5b505af1158015610a61573d6000803e3d6000fd5b505050506040513d6020811015610a7757600080fd5b81019080805190602001909291905050505060019250505090565b600560009054906101000a900460ff1681565b6000600560009054906101000a900460ff1680610ac6575060025460035410155b15610ad45760019050610ad9565b600090505b90565b600060076000600560019054906101000a900473ffffffffffffffffffffffffffffffffffffffff1673ffffffffffffffffffffffffffffffffffffffff1673ffffffffffffffffffffffffffffffffffffffff16815260200190815260200160002054905090565b60035481565b60025481565b6000809054906101000a900473ffffffffffffffffffffffffffffffffffffffff1681565b60008060009054906101000a900473ffffffffffffffffffffffffffffffffffffffff1673ffffffffffffffffffffffffffffffffffffffff163373ffffffffffffffffffffffffffffffffffffffff1614610bd157600080fd5b6002546003541115610be257600080fd5b600560009054906101000a900460ff1615610bfc57600080fd5b6001600560006101000a81548160ff021916908315150217905550600860019054906101000a900473ffffffffffffffffffffffffffffffffffffffff1673ffffffffffffffffffffffffffffffffffffffff166382a4a5a933306040518363ffffffff167c0100000000000000000000000000000000000000000000000000000000028152600401808373ffffffffffffffffffffffffffffffffffffffff1673ffffffffffffffffffffffffffffffffffffffff168152602001806020018373ffffffffffffffffffffffffffffffffffffffff1673ffffffffffffffffffffffffffffffffffffffff168152602001828103825260138152602001807f43616e63656c656420616e2041756374696f6e000000000000000000000000008152506020019350505050602060405180830381600087803b158015610d4157600080fd5b505af1158015610d55573d6000803e3d6000fd5b505050506040513d6020811015610d6b57600080fd5b8101908080519060200190929190505050507f462b6ca7f632601af1295aeb320851f50e8e630a309173f23535845ea4bfb3b960405160405180910390a17fdd43cf5f276d0a2edb852a6d25b452872549a2a11c9a80ca40d5f074a4f1d8516000809054906101000a900473ffffffffffffffffffffffffffffffffffffffff16600354600254600560019054906101000a900473ffffffffffffffffffffffffffffffffffffffff16600654600454604051808773ffffffffffffffffffffffffffffffffffffffff1673ffffffffffffffffffffffffffffffffffffffff1681526020018681526020018581526020018473ffffffffffffffffffffffffffffffffffffffff1673ffffffffffffffffffffffffffffffffffffffff168152602001838152602001828152602001965050505050505060405180910390a16001905090565b600560019054906101000a900473ffffffffffffffffffffffffffffffffffffffff1681565b60015481565b60076020528060005260406000206000915090505481565b60006002546003541115610f0957600080fd5b600560009054906101000a900460ff1615610f2357600080fd5b6000809054906101000a900473ffffffffffffffffffffffffffffffffffffffff1673ffffffffffffffffffffffffffffffffffffffff163373ffffffffffffffffffffffffffffffffffffffff161415610f7d57600080fd5b3460076000600560019054906101000a900473ffffffffffffffffffffffffffffffffffffffff1673ffffffffffffffffffffffffffffffffffffffff1673ffffffffffffffffffffffffffffffffffffffff16815260200190815260200160002054013373ffffffffffffffffffffffffffffffffffffffff1631101561100457600080fd5b60076000600560019054906101000a900473ffffffffffffffffffffffffffffffffffffffff1673ffffffffffffffffffffffffffffffffffffffff1673ffffffffffffffffffffffffffffffffffffffff16815260200190815260200160002054341161107157600080fd5b33600560016101000a81548173ffffffffffffffffffffffffffffffffffffffff021916908373ffffffffffffffffffffffffffffffffffffffff1602179055503460068190555060065460076000600560019054906101000a900473ffffffffffffffffffffffffffffffffffffffff1673ffffffffffffffffffffffffffffffffffffffff1673ffffffffffffffffffffffffffffffffffffffff16815260200190815260200160002060008282540192505081905550600860019054906101000a900473ffffffffffffffffffffffffffffffffffffffff1673ffffffffffffffffffffffffffffffffffffffff166382a4a5a933306040518363ffffffff167c0100000000000000000000000000000000000000000000000000000000028152600401808373ffffffffffffffffffffffffffffffffffffffff1673ffffffffffffffffffffffffffffffffffffffff168152602001806020018373ffffffffffffffffffffffffffffffffffffffff1673ffffffffffffffffffffffffffffffffffffffff1681526020018281038252600d8152602001807f506c6163656420612042696421000000000000000000000000000000000000008152506020019350505050602060405180830381600087803b15801561125457600080fd5b505af1158015611268573d6000803e3d6000fd5b505050506040513d602081101561127e57600080fd5b8101908080519060200190929190505050506003600081548092919060010191905055507f49e60d8d833f1250f6ede154509b047fe77c1eae57655e8176675b5f91af7b0a3334600560019054906101000a900473ffffffffffffffffffffffffffffffffffffffff1660076000600560019054906101000a900473ffffffffffffffffffffffffffffffffffffffff1673ffffffffffffffffffffffffffffffffffffffff1673ffffffffffffffffffffffffffffffffffffffff16815260200190815260200160002054604051808573ffffffffffffffffffffffffffffffffffffffff1673ffffffffffffffffffffffffffffffffffffffff1681526020018481526020018373ffffffffffffffffffffffffffffffffffffffff1673ffffffffffffffffffffffffffffffffffffffff16815260200182815260200194505050505060405180910390a17fef9e2d8e435f0509e385fd41e94559252a2981041dd8797ca42aaef7d729ec6c6003546040518082815260200191505060405180910390a17fdd43cf5f276d0a2edb852a6d25b452872549a2a11c9a80ca40d5f074a4f1d8516000809054906101000a900473ffffffffffffffffffffffffffffffffffffffff16600354600254600560019054906101000a900473ffffffffffffffffffffffffffffffffffffffff16600654600454604051808773ffffffffffffffffffffffffffffffffffffffff1673ffffffffffffffffffffffffffffffffffffffff1681526020018681526020018581526020018473ffffffffffffffffffffffffffffffffffffffff1673ffffffffffffffffffffffffffffffffffffffff168152602001838152602001828152602001965050505050505060405180910390a1600190509056fea165627a7a723058202e65fc178ef0ee15a7e7afc79ba3f38e7d542bbc05f39c1a27494fc35d4468c60029a165627a7a723058204c32dcfbbcfaca8d25a6506bc12f649dccc7c215f4393025ab6b3602714769da0029",
  "source": "pragma solidity ^0.5.7;\r\n\r\nimport { Auction } from './Auction.sol';\r\nimport {Oracle} from './Oracle.sol';\r\n\r\ncontract AuctionFactory {\r\n    Oracle oracle;\r\n    address[] public auctions;\r\n    mapping(address=>Auction) auctionList;\r\n    event AuctionCreated(address auctionContract, address owner, uint numAuctions, address[] allAuctions);\r\n    event getAddress(address);\r\n    event getBlockNumber(uint);\r\n    constructor()public {\r\n    }\r\n\r\n    function createAuction( uint endBid, address _oracle) public returns(address) {\r\n        oracle = Oracle(_oracle);\r\n        Auction newAuction = new Auction( msg.sender, endBid, _oracle);\r\n        emit getAddress(address(newAuction));\r\n        oracle.operationCallback(msg.sender, \"Created a new Auction!\", address(newAuction));\r\n        oracle.newAuctionCallback(address(newAuction));\r\n    }\r\n\r\n    function allAuctions() view public returns (address[] memory) {\r\n        return auctions;\r\n    }\r\n}",
  "sourcePath": "C:/Users/node/Desktop/pjpj/code/contracts/AuctionFactory.sol",
  "compiler": {
    "name": "solc",
    "version": "0.5.7+commit.6da8b019.Emscripten.clang"
  },
  "schemaVersion": "3.0.6",
  "updatedAt": "2019-04-25T13:22:08.711Z",
  "devdoc": {
    "methods": {}
  },
  "userdoc": {
    "methods": {}
  }
}