{
  "contractName": "Oracle",
  "abi": [
    {
      "constant": true,
      "inputs": [],
      "name": "cbAddress",
      "outputs": [
        {
          "name": "",
          "type": "address"
        }
      ],
      "payable": false,
      "stateMutability": "view",
      "type": "function",
      "signature": "0xc281d19e"
    },
    {
      "inputs": [],
      "payable": false,
      "stateMutability": "nonpayable",
      "type": "constructor",
      "signature": "constructor"
    },
    {
      "anonymous": false,
      "inputs": [
        {
          "indexed": false,
          "name": "",
          "type": "address"
        }
      ],
      "name": "newAuction",
      "type": "event",
      "signature": "0x9dc2853fa05a54e1c31cb87878685b663faa3f2d8e0d88ea64903bfa5c4fa5af"
    },
    {
      "anonymous": false,
      "inputs": [
        {
          "indexed": false,
          "name": "",
          "type": "address"
        },
        {
          "indexed": false,
          "name": "",
          "type": "string"
        },
        {
          "indexed": false,
          "name": "",
          "type": "address"
        }
      ],
      "name": "newMsg",
      "type": "event",
      "signature": "0x662d7a6e5fec1b1497aa160c00a7937c58a115faa606b19d56bc91ed0544c9a2"
    },
    {
      "anonymous": false,
      "inputs": [
        {
          "indexed": false,
          "name": "",
          "type": "uint256"
        }
      ],
      "name": "QueryAuctionsNum",
      "type": "event",
      "signature": "0x00a52ccd609ec1daa6522f23f6349e0e0080898275dc83df55c85885b09a8794"
    },
    {
      "anonymous": false,
      "inputs": [
        {
          "indexed": false,
          "name": "",
          "type": "address"
        },
        {
          "indexed": false,
          "name": "",
          "type": "string"
        },
        {
          "indexed": false,
          "name": "",
          "type": "address"
        }
      ],
      "name": "QueryMsg",
      "type": "event",
      "signature": "0xd4e84433f8d52beee350ccab118ab4d618bd5e964f60e04f6b5c5d430af5ee1d"
    },
    {
      "anonymous": false,
      "inputs": [
        {
          "indexed": false,
          "name": "",
          "type": "uint256"
        }
      ],
      "name": "QueryMsgNum",
      "type": "event",
      "signature": "0x9b7179d68dc911aba55c25a758e7a1c6e7a58714ee689267b962017d5393bb9a"
    },
    {
      "anonymous": false,
      "inputs": [
        {
          "indexed": false,
          "name": "",
          "type": "address"
        }
      ],
      "name": "QueryAuctions",
      "type": "event",
      "signature": "0xdc235fdde8096da540026594d0de45b9a3084c75d29985b0f8aeaac2a1984238"
    },
    {
      "anonymous": false,
      "inputs": [
        {
          "indexed": false,
          "name": "",
          "type": "uint256"
        }
      ],
      "name": "checkMSGNUM",
      "type": "event",
      "signature": "0x60da3e50c8782c9d6427b1ccbd19b4a9511f1b2bd46792f2291ec37cda0a57da"
    },
    {
      "anonymous": false,
      "inputs": [
        {
          "indexed": false,
          "name": "",
          "type": "uint256"
        }
      ],
      "name": "checkMSGNUM2222",
      "type": "event",
      "signature": "0x9e1c6a4b648e0f422765847f57f5e7d856163215fdf58e7b1ec0aafc3d5d59a3"
    },
    {
      "constant": false,
      "inputs": [
        {
          "name": "_cbAddress",
          "type": "address"
        }
      ],
      "name": "setCbAddress",
      "outputs": [],
      "payable": false,
      "stateMutability": "nonpayable",
      "type": "function",
      "signature": "0xb62a717c"
    },
    {
      "constant": false,
      "inputs": [
        {
          "name": "_sender",
          "type": "address"
        },
        {
          "name": "_operation",
          "type": "string"
        },
        {
          "name": "_auction",
          "type": "address"
        }
      ],
      "name": "operationCallback",
      "outputs": [
        {
          "name": "",
          "type": "uint256"
        }
      ],
      "payable": false,
      "stateMutability": "nonpayable",
      "type": "function",
      "signature": "0x82a4a5a9"
    },
    {
      "constant": false,
      "inputs": [
        {
          "name": "auction",
          "type": "address"
        }
      ],
      "name": "newAuctionCallback",
      "outputs": [],
      "payable": false,
      "stateMutability": "nonpayable",
      "type": "function",
      "signature": "0x1c56ecad"
    },
    {
      "constant": false,
      "inputs": [
        {
          "name": "index",
          "type": "uint256"
        }
      ],
      "name": "getAuction",
      "outputs": [
        {
          "name": "",
          "type": "address"
        }
      ],
      "payable": false,
      "stateMutability": "nonpayable",
      "type": "function",
      "signature": "0x78bd7935"
    },
    {
      "constant": false,
      "inputs": [],
      "name": "getNumOfAuction",
      "outputs": [
        {
          "name": "",
          "type": "uint256"
        }
      ],
      "payable": false,
      "stateMutability": "nonpayable",
      "type": "function",
      "signature": "0x638862ee"
    },
    {
      "constant": false,
      "inputs": [
        {
          "name": "index",
          "type": "uint256"
        }
      ],
      "name": "getOperation",
      "outputs": [
        {
          "name": "",
          "type": "string"
        }
      ],
      "payable": false,
      "stateMutability": "nonpayable",
      "type": "function",
      "signature": "0x202e3924"
    },
    {
      "constant": false,
      "inputs": [],
      "name": "getNumOfOperation",
      "outputs": [
        {
          "name": "",
          "type": "uint256"
        }
      ],
      "payable": false,
      "stateMutability": "nonpayable",
      "type": "function",
      "signature": "0xe821cb8c"
    }
  ],
  "bytecode": "0x6080604052600060025533600460006101000a81548173ffffffffffffffffffffffffffffffffffffffff021916908373ffffffffffffffffffffffffffffffffffffffff160217905550600060065534801561005b57600080fd5b50610ac28061006b6000396000f3fe608060405234801561001057600080fd5b50600436106100a5576000357c01000000000000000000000000000000000000000000000000000000009004806382a4a5a91161007857806382a4a5a914610221578063b62a717c14610330578063c281d19e14610374578063e821cb8c146103be576100a5565b80631c56ecad146100aa578063202e3924146100ee578063638862ee1461019557806378bd7935146101b3575b600080fd5b6100ec600480360360208110156100c057600080fd5b81019080803573ffffffffffffffffffffffffffffffffffffffff1690602001909291905050506103dc565b005b61011a6004803603602081101561010457600080fd5b81019080803590602001909291905050506104a8565b6040518080602001828103825283818151815260200191508051906020019080838360005b8381101561015a57808201518184015260208101905061013f565b50505050905090810190601f1680156101875780820380516001836020036101000a031916815260200191505b509250505060405180910390f35b61019d610591565b6040518082815260200191505060405180910390f35b6101df600480360360208110156101c957600080fd5b810190808035906020019092919050505061059e565b604051808273ffffffffffffffffffffffffffffffffffffffff1673ffffffffffffffffffffffffffffffffffffffff16815260200191505060405180910390f35b61031a6004803603606081101561023757600080fd5b81019080803573ffffffffffffffffffffffffffffffffffffffff1690602001909291908035906020019064010000000081111561027457600080fd5b82018360208201111561028657600080fd5b803590602001918460018302840111640100000000831117156102a857600080fd5b91908080601f016020809104026020016040519081016040528093929190818152602001838380828437600081840152601f19601f820116905080830192505050505050509192919290803573ffffffffffffffffffffffffffffffffffffffff1690602001909291905050506105df565b6040518082815260200191505060405180910390f35b6103726004803603602081101561034657600080fd5b81019080803573ffffffffffffffffffffffffffffffffffffffff169060200190929190505050610929565b005b61037c61096d565b604051808273ffffffffffffffffffffffffffffffffffffffff1673ffffffffffffffffffffffffffffffffffffffff16815260200191505060405180910390f35b6103c6610993565b6040518082815260200191505060405180910390f35b60038190806001815401808255809150509060018203906000526020600020016000909192909190916101000a81548173ffffffffffffffffffffffffffffffffffffffff021916908373ffffffffffffffffffffffffffffffffffffffff160217905550507f9dc2853fa05a54e1c31cb87878685b663faa3f2d8e0d88ea64903bfa5c4fa5af81604051808273ffffffffffffffffffffffffffffffffffffffff1673ffffffffffffffffffffffffffffffffffffffff16815260200191505060405180910390a150565b60606000808381526020019081526020016000206002018054600181600116156101000203166002900480601f0160208091040260200160405190810160405280929190818152602001828054600181600116156101000203166002900480156105535780601f1061052857610100808354040283529160200191610553565b820191906000526020600020905b81548152906001019060200180831161053657829003601f168201915b5050505050905061058c565b81548152906001019060200180831161055f57829003601f16820191505094505050505060405180910390a15b919050565b6000600380549050905090565b6000600382815481106105ad57fe5b9060005260206000200160009054906101000a900473ffffffffffffffffffffffffffffffffffffffff169050919050565b60006105e961099d565b84816000019073ffffffffffffffffffffffffffffffffffffffff16908173ffffffffffffffffffffffffffffffffffffffff168152505082816020019073ffffffffffffffffffffffffffffffffffffffff16908173ffffffffffffffffffffffffffffffffffffffff168152505083816040018190525080600080600254815260200190815260200160002060008201518160000160006101000a81548173ffffffffffffffffffffffffffffffffffffffff021916908373ffffffffffffffffffffffffffffffffffffffff16021790555060208201518160010160006101000a81548173ffffffffffffffffffffffffffffffffffffffff021916908373ffffffffffffffffffffffffffffffffffffffff16021790555060408201518160020190805190602001906107219291906109f1565b5060608201518160030155905050600660008154809291906001019190505550600460009054906101000a900473ffffffffffffffffffffffffffffffffffffffff1673ffffffffffffffffffffffffffffffffffffffff163373ffffffffffffffffffffffffffffffffffffffff16141580156107ab575060006002600654816107a857fe5b06145b156107c3576002600081548092919060010191905055505b7f60da3e50c8782c9d6427b1ccbd19b4a9511f1b2bd46792f2291ec37cda0a57da6002546040518082815260200191505060405180910390a1600254600160003373ffffffffffffffffffffffffffffffffffffffff1673ffffffffffffffffffffffffffffffffffffffff16815260200190815260200160002060030181905550600160003373ffffffffffffffffffffffffffffffffffffffff1673ffffffffffffffffffffffffffffffffffffffff16815260200190815260200160002060030154915050610922565b838110156108ab578082015181840152602081019050610890565b50505050905090810190601f1680156108d85780820380516001836020036101000a031916815260200191505b5094505050505060405180910390a17f9e1c6a4b648e0f422765847f57f5e7d856163215fdf58e7b1ec0aafc3d5d59a36002546040518082815260200191505060405180910390a1505b9392505050565b80600560006101000a81548173ffffffffffffffffffffffffffffffffffffffff021916908373ffffffffffffffffffffffffffffffffffffffff16021790555050565b600560009054906101000a900473ffffffffffffffffffffffffffffffffffffffff1681565b6000600254905090565b6040518060800160405280600073ffffffffffffffffffffffffffffffffffffffff168152602001600073ffffffffffffffffffffffffffffffffffffffff16815260200160608152602001600081525090565b828054600181600116156101000203166002900490600052602060002090601f016020900481019282601f10610a3257805160ff1916838001178555610a60565b82800160010185558215610a60579182015b82811115610a5f578251825591602001919060010190610a44565b5b509050610a6d9190610a71565b5090565b610a9391905b80821115610a8f576000816000905550600101610a77565b5090565b9056fea165627a7a723058201661f0c30f723ad8a0abb54350ad4777b1d6ba5df4514f5ea4d6f103cdf9da200029",
  "source": "pragma solidity ^0.5.7;\r\n\r\ncontract Oracle {\r\n    struct Msg{\r\n        address sender;\r\n        address auction;\r\n        string operation;\r\n        uint Auctioncnt;\r\n    }\r\n    mapping(uint=>Msg) Msgs;\r\n    //new add\r\n    mapping (address=>Msg) tmpmsgs;\r\n    \r\n    uint messagesNum = 0;\r\n    address[]Auctions;\r\n    address owner= msg.sender;\r\n    \r\n    address public cbAddress; // callback address\r\n    \r\n    constructor ()public  {\r\n\r\n    }\r\n\r\n    event newAuction(address);\r\n    event newMsg(address,string, address);\r\n    event QueryAuctionsNum(uint);\r\n    event QueryMsg(address, string , address);\r\n    event QueryMsgNum(uint);\r\n    event QueryAuctions(address);\r\n\r\n    function setCbAddress(address _cbAddress) public {\r\n        cbAddress = _cbAddress;\r\n    }\r\n\r\n    event checkMSGNUM(uint);\r\n    event checkMSGNUM2222(uint);\r\n    \r\n    uint count=0;\r\n    function operationCallback(address _sender, string memory _operation, address _auction)public returns (uint){\r\n        Msg memory m;\r\n        m.sender=_sender;\r\n        m.auction = _auction;\r\n        m.operation = _operation;\r\n        Msgs[messagesNum]=m;\r\n        \r\n        count++;\r\n        if (msg.sender != owner && count%2==0)\r\n        {\r\n            messagesNum++;\r\n        }\r\n        \r\n        \r\n        emit checkMSGNUM(messagesNum);\r\n        \r\n        tmpmsgs[msg.sender].Auctioncnt = messagesNum;\r\n        return tmpmsgs[msg.sender].Auctioncnt;\r\n        emit newMsg(_sender, _operation, _auction);\r\n        \r\n        emit checkMSGNUM2222(messagesNum);\r\n\r\n    }\r\n    \r\n    function newAuctionCallback(address auction)public{\r\n        Auctions.push(auction);\r\n        emit newAuction(auction);\r\n    }\r\n    \r\n    function getAuction(uint index)public returns(address){\r\n        return Auctions[index];\r\n        emit QueryAuctions(Auctions[index]);\r\n    }\r\n    \r\n    function getNumOfAuction()public returns(uint){\r\n        return Auctions.length;\r\n        emit QueryAuctionsNum(Auctions.length);\r\n    }\r\n    \r\n    function getOperation(uint index)public returns(string memory){\r\n        return Msgs[index].operation;\r\n        emit QueryMsg(Msgs[index].sender,Msgs[index].operation,Msgs[index].auction);\r\n    }\r\n\r\n    function getNumOfOperation ()public returns(uint){\r\n        return messagesNum;\r\n        emit QueryMsgNum(messagesNum);\r\n    }\r\n    \r\n}\r\n\r\n",
  "sourcePath": "C:\\Users\\node\\Desktop\\pjpj\\code\\contracts\\Oracle.sol",
  "compiler": {
    "name": "solc",
    "version": "0.5.7+commit.6da8b019.Emscripten.clang"
  },
  "schemaVersion": "3.0.6",
  "updatedAt": "2019-04-24T13:52:49.121Z",
  "devdoc": {
    "methods": {}
  },
  "userdoc": {
    "methods": {}
  }
}