{
  "contractName": "AuctionFactory",
  "abi": [
    {
      "inputs": [],
      "payable": false,
      "stateMutability": "nonpayable",
      "type": "constructor",
      "signature": "constructor"
    },
    {
      "anonymous": false,
      "inputs": [
        {
          "indexed": false,
          "name": "auctionContract",
          "type": "address"
        },
        {
          "indexed": false,
          "name": "owner",
          "type": "address"
        },
        {
          "indexed": false,
          "name": "numAuctions",
          "type": "uint256"
        },
        {
          "indexed": false,
          "name": "allAuctions",
          "type": "address[]"
        }
      ],
      "name": "AuctionCreated",
      "type": "event",
      "signature": "0x0d314047f0d1e39dbbd521f0844c35332083a15926b906540faa68e1a4262b68"
    },
    {
      "anonymous": false,
      "inputs": [
        {
          "indexed": false,
          "name": "",
          "type": "address"
        }
      ],
      "name": "getAddress",
      "type": "event",
      "signature": "0xae22c57db0d6f837c963673636539f7f08422a2bdd477a0ab76307205bc4a370"
    },
    {
      "anonymous": false,
      "inputs": [
        {
          "indexed": false,
          "name": "",
          "type": "uint256"
        }
      ],
      "name": "getBlockNumber",
      "type": "event",
      "signature": "0x50c0fbe4c022d1d92306c9777471b26c7abffc120d9081211b4de64fec304225"
    },
    {
      "anonymous": false,
      "inputs": [
        {
          "indexed": false,
          "name": "",
          "type": "address"
        },
        {
          "indexed": false,
          "name": "",
          "type": "uint256"
        },
        {
          "indexed": false,
          "name": "",
          "type": "uint256"
        },
        {
          "indexed": false,
          "name": "",
          "type": "string"
        },
        {
          "indexed": false,
          "name": "",
          "type": "address"
        }
      ],
      "name": "track",
      "type": "event",
      "signature": "0xa2e68d3534ea9612c900e425078476be59b258bf2cc8f669f890533876ccdb2e"
    },
    {
      "anonymous": false,
      "inputs": [
        {
          "indexed": false,
          "name": "bidder",
          "type": "address"
        },
        {
          "indexed": false,
          "name": "bid",
          "type": "uint256"
        },
        {
          "indexed": false,
          "name": "highestBidder",
          "type": "address"
        },
        {
          "indexed": false,
          "name": "highestBid",
          "type": "uint256"
        }
      ],
      "name": "LogBid",
      "type": "event",
      "signature": "0x49e60d8d833f1250f6ede154509b047fe77c1eae57655e8176675b5f91af7b0a"
    },
    {
      "anonymous": false,
      "inputs": [
        {
          "indexed": false,
          "name": "withdrawer",
          "type": "address"
        },
        {
          "indexed": false,
          "name": "withdrawalAccount",
          "type": "address"
        },
        {
          "indexed": false,
          "name": "amount",
          "type": "uint256"
        }
      ],
      "name": "LogWithdrawal",
      "type": "event",
      "signature": "0x0ec497a8ae5b1ba29c60470ef651def995fac3deebbdcc56c47a4e5f51a4c2bd"
    },
    {
      "anonymous": false,
      "inputs": [],
      "name": "LogCanceled",
      "type": "event",
      "signature": "0x462b6ca7f632601af1295aeb320851f50e8e630a309173f23535845ea4bfb3b9"
    },
    {
      "anonymous": false,
      "inputs": [],
      "name": "LogOwnerEnd",
      "type": "event",
      "signature": "0xc4d1d017283a5f3050c1bc312fa99dc1ed2eb473e52f0a4d4fabeaf690aefe4c"
    },
    {
      "anonymous": false,
      "inputs": [
        {
          "indexed": false,
          "name": "cnt",
          "type": "uint256"
        }
      ],
      "name": "AuctionCnt",
      "type": "event",
      "signature": "0xef9e2d8e435f0509e385fd41e94559252a2981041dd8797ca42aaef7d729ec6c"
    },
    {
      "constant": false,
      "inputs": [
        {
          "name": "endBid",
          "type": "uint256"
        },
        {
          "name": "_oracle",
          "type": "address"
        },
        {
          "name": "_product",
          "type": "string"
        }
      ],
      "name": "createAuction",
      "outputs": [
        {
          "name": "",
          "type": "uint256"
        }
      ],
      "payable": false,
      "stateMutability": "nonpayable",
      "type": "function",
      "signature": "0x3356ab76"
    },
    {
      "constant": false,
      "inputs": [
        {
          "name": "auctionID",
          "type": "uint256"
        }
      ],
      "name": "placeBid",
      "outputs": [
        {
          "name": "success",
          "type": "bool"
        }
      ],
      "payable": true,
      "stateMutability": "payable",
      "type": "function",
      "signature": "0x9979ef45"
    },
    {
      "constant": false,
      "inputs": [
        {
          "name": "auctionID",
          "type": "uint256"
        }
      ],
      "name": "endAuction",
      "outputs": [
        {
          "name": "success",
          "type": "bool"
        }
      ],
      "payable": false,
      "stateMutability": "nonpayable",
      "type": "function",
      "signature": "0xb9a2de3a"
    },
    {
      "constant": false,
      "inputs": [
        {
          "name": "auctionID",
          "type": "uint256"
        }
      ],
      "name": "cancelAuction",
      "outputs": [
        {
          "name": "success",
          "type": "bool"
        }
      ],
      "payable": false,
      "stateMutability": "nonpayable",
      "type": "function",
      "signature": "0x96b5a755"
    },
    {
      "constant": false,
      "inputs": [
        {
          "name": "auctionID",
          "type": "uint256"
        }
      ],
      "name": "withdraw",
      "outputs": [
        {
          "name": "success",
          "type": "bool"
        }
      ],
      "payable": false,
      "stateMutability": "nonpayable",
      "type": "function",
      "signature": "0x2e1a7d4d"
    },
    {
      "constant": true,
      "inputs": [
        {
          "name": "auctionID",
          "type": "uint256"
        }
      ],
      "name": "getIsEnd",
      "outputs": [
        {
          "name": "",
          "type": "bool"
        }
      ],
      "payable": false,
      "stateMutability": "view",
      "type": "function",
      "signature": "0x705dd423"
    },
    {
      "constant": true,
      "inputs": [
        {
          "name": "auctionID",
          "type": "uint256"
        }
      ],
      "name": "getHighestBid",
      "outputs": [
        {
          "name": "",
          "type": "uint256"
        }
      ],
      "payable": false,
      "stateMutability": "view",
      "type": "function",
      "signature": "0x8f288644"
    },
    {
      "constant": true,
      "inputs": [
        {
          "name": "auctionID",
          "type": "uint256"
        }
      ],
      "name": "getHighestBidderAddress",
      "outputs": [
        {
          "name": "",
          "type": "address"
        }
      ],
      "payable": false,
      "stateMutability": "view",
      "type": "function",
      "signature": "0x42eb1fa5"
    },
    {
      "constant": true,
      "inputs": [
        {
          "name": "auctionID",
          "type": "uint256"
        }
      ],
      "name": "getBidNum",
      "outputs": [
        {
          "name": "",
          "type": "uint256"
        }
      ],
      "payable": false,
      "stateMutability": "view",
      "type": "function",
      "signature": "0xe0356ebd"
    },
    {
      "constant": true,
      "inputs": [
        {
          "name": "auctionID",
          "type": "uint256"
        }
      ],
      "name": "getOwnerAddress",
      "outputs": [
        {
          "name": "",
          "type": "address"
        }
      ],
      "payable": false,
      "stateMutability": "view",
      "type": "function",
      "signature": "0xdd550958"
    },
    {
      "constant": true,
      "inputs": [],
      "name": "getlatestID",
      "outputs": [
        {
          "name": "",
          "type": "uint256"
        }
      ],
      "payable": false,
      "stateMutability": "view",
      "type": "function",
      "signature": "0xa13588ec"
    },
    {
      "constant": true,
      "inputs": [
        {
          "name": "auctionID",
          "type": "uint256"
        }
      ],
      "name": "getProductName",
      "outputs": [
        {
          "name": "",
          "type": "string"
        }
      ],
      "payable": false,
      "stateMutability": "view",
      "type": "function",
      "signature": "0x9e62e795"
    }
  ],
  "bytecode": "0x6080604052600060025534801561001557600080fd5b506121d1806100256000396000f3fe6080604052600436106100c4576000357c0100000000000000000000000000000000000000000000000000000000900480639979ef45116100815780639979ef45146103925780639e62e795146103d8578063a13588ec1461048c578063b9a2de3a146104b7578063dd5509581461050a578063e0356ebd14610585576100c4565b80632e1a7d4d146100c95780633356ab761461011c57806342eb1fa514610222578063705dd4231461029d5780638f288644146102f057806396b5a7551461033f575b600080fd5b3480156100d557600080fd5b50610102600480360360208110156100ec57600080fd5b81019080803590602001909291905050506105d4565b604051808215151515815260200191505060405180910390f35b34801561012857600080fd5b5061020c6004803603606081101561013f57600080fd5b8101908080359060200190929190803573ffffffffffffffffffffffffffffffffffffffff1690602001909291908035906020019064010000000081111561018657600080fd5b82018360208201111561019857600080fd5b803590602001918460018302840111640100000000831117156101ba57600080fd5b91908080601f016020809104026020016040519081016040528093929190818152602001838380828437600081840152601f19601f820116905080830192505050505050509192919290505050610e9f565b6040518082815260200191505060405180910390f35b34801561022e57600080fd5b5061025b6004803603602081101561024557600080fd5b81019080803590602001909291905050506111e7565b604051808273ffffffffffffffffffffffffffffffffffffffff1673ffffffffffffffffffffffffffffffffffffffff16815260200191505060405180910390f35b3480156102a957600080fd5b506102d6600480360360208110156102c057600080fd5b8101908080359060200190929190505050611227565b604051808215151515815260200191505060405180910390f35b3480156102fc57600080fd5b506103296004803603602081101561031357600080fd5b810190808035906020019092919050505061133f565b6040518082815260200191505060405180910390f35b34801561034b57600080fd5b506103786004803603602081101561036257600080fd5b81019080803590602001909291905050506113d2565b604051808215151515815260200191505060405180910390f35b6103be600480360360208110156103a857600080fd5b810190808035906020019092919050505061167b565b604051808215151515815260200191505060405180910390f35b3480156103e457600080fd5b50610411600480360360208110156103fb57600080fd5b8101908080359060200190929190505050611d09565b6040518080602001828103825283818151815260200191508051906020019080838360005b83811015610451578082015181840152602081019050610436565b50505050905090810190601f16801561047e5780820380516001836020036101000a031916815260200191505b509250505060405180910390f35b34801561049857600080fd5b506104a1611dc1565b6040518082815260200191505060405180910390f35b3480156104c357600080fd5b506104f0600480360360208110156104da57600080fd5b8101908080359060200190929190505050611dcb565b604051808215151515815260200191505060405180910390f35b34801561051657600080fd5b506105436004803603602081101561052d57600080fd5b8101908080359060200190929190505050612074565b604051808273ffffffffffffffffffffffffffffffffffffffff1673ffffffffffffffffffffffffffffffffffffffff16815260200191505060405180910390f35b34801561059157600080fd5b506105be600480360360208110156105a857600080fd5b81019080803590602001909291905050506120b4565b6040518082815260200191505060405180910390f35b6000816001600082815260200190815260200160002060020154600160008381526020019081526020016000206006015410158061063257506001600082815260200190815260200160002060040160009054906101000a900460ff165b8061065d57506001600082815260200190815260200160002060040160019054906101000a900460ff165b6106cf576040517f08c379a00000000000000000000000000000000000000000000000000000000081526004018080602001828103825260178152602001807f4974206973206e6f7420656e64206f722063616e63656c00000000000000000081525060200191505060405180910390fd5b823373ffffffffffffffffffffffffffffffffffffffff166001600083815260200190815260200160002060000160009054906101000a900473ffffffffffffffffffffffffffffffffffffffff1673ffffffffffffffffffffffffffffffffffffffff1614158015610795575060006001600083815260200190815260200160002060070160003373ffffffffffffffffffffffffffffffffffffffff1673ffffffffffffffffffffffffffffffffffffffff16815260200190815260200160002054145b8061089757503373ffffffffffffffffffffffffffffffffffffffff166001600083815260200190815260200160002060000160009054906101000a900473ffffffffffffffffffffffffffffffffffffffff1673ffffffffffffffffffffffffffffffffffffffff16148015610896575060006001600083815260200190815260200160002060070160006001600085815260200190815260200160002060040160029054906101000a900473ffffffffffffffffffffffffffffffffffffffff1673ffffffffffffffffffffffffffffffffffffffff1673ffffffffffffffffffffffffffffffffffffffff1681526020019081526020016000205414155b5b156108a157600080fd5b6000806001600087815260200190815260200160002060040160009054906101000a900460ff161561092b573391506001600087815260200190815260200160002060070160008373ffffffffffffffffffffffffffffffffffffffff1673ffffffffffffffffffffffffffffffffffffffff168152602001908152602001600020549050610c23565b6001600087815260200190815260200160002060000160009054906101000a900473ffffffffffffffffffffffffffffffffffffffff1673ffffffffffffffffffffffffffffffffffffffff163373ffffffffffffffffffffffffffffffffffffffff161415610a8d576001600087815260200190815260200160002060040160029054906101000a900473ffffffffffffffffffffffffffffffffffffffff1691506001600087815260200190815260200160002060070160006001600089815260200190815260200160002060040160029054906101000a900473ffffffffffffffffffffffffffffffffffffffff1673ffffffffffffffffffffffffffffffffffffffff1673ffffffffffffffffffffffffffffffffffffffff168152602001908152602001600020549050600180600088815260200190815260200160002060080160006101000a81548160ff021916908315150217905550610c22565b6001600087815260200190815260200160002060040160029054906101000a900473ffffffffffffffffffffffffffffffffffffffff1673ffffffffffffffffffffffffffffffffffffffff163373ffffffffffffffffffffffffffffffffffffffff161415610bc75733915060016000878152602001908152602001600020600501546001600088815260200190815260200160002060070160008473ffffffffffffffffffffffffffffffffffffffff1673ffffffffffffffffffffffffffffffffffffffff168152602001908152602001600020540390506000811015610bc2576040517f08c379a000000000000000000000000000000000000000000000000000000000815260040180806020018281038252602c81526020018061217a602c913960400191505060405180910390fd5b610c21565b3391506001600087815260200190815260200160002060070160008373ffffffffffffffffffffffffffffffffffffffff1673ffffffffffffffffffffffffffffffffffffffff1681526020019081526020016000205490505b5b5b3373ffffffffffffffffffffffffffffffffffffffff166108fc829081150290604051600060405180830381858888f19350505050610c6157600080fd5b7f0ec497a8ae5b1ba29c60470ef651def995fac3deebbdcc56c47a4e5f51a4c2bd338383604051808473ffffffffffffffffffffffffffffffffffffffff1673ffffffffffffffffffffffffffffffffffffffff1681526020018373ffffffffffffffffffffffffffffffffffffffff1673ffffffffffffffffffffffffffffffffffffffff168152602001828152602001935050505060405180910390a160006001600088815260200190815260200160002060070160008473ffffffffffffffffffffffffffffffffffffffff1673ffffffffffffffffffffffffffffffffffffffff168152602001908152602001600020819055506000809054906101000a900473ffffffffffffffffffffffffffffffffffffffff1673ffffffffffffffffffffffffffffffffffffffff16636b7e369683886040518363ffffffff167c0100000000000000000000000000000000000000000000000000000000028152600401808373ffffffffffffffffffffffffffffffffffffffff1673ffffffffffffffffffffffffffffffffffffffff16815260200180602001838152602001828103825260108152602001807f57697468647261776564204d6f6e6579000000000000000000000000000000008152506020019350505050602060405180830381600087803b158015610e5657600080fd5b505af1158015610e6a573d6000803e3d6000fd5b505050506040513d6020811015610e8057600080fd5b8101908080519060200190929190505050506001945050505050919050565b6000600260008154809291906001019190505550826000806101000a81548173ffffffffffffffffffffffffffffffffffffffff021916908373ffffffffffffffffffffffffffffffffffffffff1602179055503360016000600254815260200190815260200160002060000160006101000a81548173ffffffffffffffffffffffffffffffffffffffff021916908373ffffffffffffffffffffffffffffffffffffffff1602179055508360016000600254815260200190815260200160002060020181905550600060016000600254815260200190815260200160002060040160006101000a81548160ff021916908315150217905550600060016000600254815260200190815260200160002060040160016101000a81548160ff021916908315150217905550816001600060025481526020019081526020016000206003019080519060200190610ff59291906120d4565b506000809054906101000a900473ffffffffffffffffffffffffffffffffffffffff1673ffffffffffffffffffffffffffffffffffffffff16636b7e3696336002546040518363ffffffff167c0100000000000000000000000000000000000000000000000000000000028152600401808373ffffffffffffffffffffffffffffffffffffffff1673ffffffffffffffffffffffffffffffffffffffff16815260200180602001838152602001828103825260168152602001807f437265617465642061206e65772041756374696f6e21000000000000000000008152506020019350505050602060405180830381600087803b1580156110f557600080fd5b505af1158015611109573d6000803e3d6000fd5b505050506040513d602081101561111f57600080fd5b8101908080519060200190929190505050506000809054906101000a900473ffffffffffffffffffffffffffffffffffffffff1673ffffffffffffffffffffffffffffffffffffffff1663574d2ae36002546040518263ffffffff167c010000000000000000000000000000000000000000000000000000000002815260040180828152602001915050600060405180830381600087803b1580156111c357600080fd5b505af11580156111d7573d6000803e3d6000fd5b5050505060025490509392505050565b60006001600083815260200190815260200160002060040160029054906101000a900473ffffffffffffffffffffffffffffffffffffffff169050919050565b60006002548211156112a1576040517f08c379a00000000000000000000000000000000000000000000000000000000081526004018080602001828103825260168152602001807f506c6561736520496e7075742061756374696f6e49440000000000000000000081525060200191505060405180910390fd5b6001600083815260200190815260200160002060040160019054906101000a900460ff16806112f057506001600083815260200190815260200160002060040160009054906101000a900460ff165b8061132757506001600083815260200190815260200160002060020154600160008481526020019081526020016000206006015410155b15611335576001905061133a565b600090505b919050565b60006001600083815260200190815260200160002060070160006001600085815260200190815260200160002060040160029054906101000a900473ffffffffffffffffffffffffffffffffffffffff1673ffffffffffffffffffffffffffffffffffffffff1673ffffffffffffffffffffffffffffffffffffffff168152602001908152602001600020549050919050565b6000816001600082815260200190815260200160002060000160009054906101000a900473ffffffffffffffffffffffffffffffffffffffff1673ffffffffffffffffffffffffffffffffffffffff163373ffffffffffffffffffffffffffffffffffffffff161461144357600080fd5b8260016000828152602001908152602001600020600201546001600083815260200190815260200160002060060154111561147d57600080fd5b836001600082815260200190815260200160002060040160009054906101000a900460ff16156114ac57600080fd5b846001600082815260200190815260200160002060040160019054906101000a900460ff16156114db57600080fd5b600180600088815260200190815260200160002060040160006101000a81548160ff0219169083151502179055506000809054906101000a900473ffffffffffffffffffffffffffffffffffffffff1673ffffffffffffffffffffffffffffffffffffffff16636b7e369633886040518363ffffffff167c0100000000000000000000000000000000000000000000000000000000028152600401808373ffffffffffffffffffffffffffffffffffffffff1673ffffffffffffffffffffffffffffffffffffffff16815260200180602001838152602001828103825260138152602001807f43616e63656c656420616e2041756374696f6e000000000000000000000000008152506020019350505050602060405180830381600087803b15801561160657600080fd5b505af115801561161a573d6000803e3d6000fd5b505050506040513d602081101561163057600080fd5b8101908080519060200190929190505050507f462b6ca7f632601af1295aeb320851f50e8e630a309173f23535845ea4bfb3b960405160405180910390a16001945050505050919050565b6000816001600082815260200190815260200160002060020154600160008381526020019081526020016000206006015411156116b757600080fd5b826001600082815260200190815260200160002060040160009054906101000a900460ff16156116e657600080fd5b836001600082815260200190815260200160002060000160009054906101000a900473ffffffffffffffffffffffffffffffffffffffff1673ffffffffffffffffffffffffffffffffffffffff163373ffffffffffffffffffffffffffffffffffffffff16141561175657600080fd5b846001600082815260200190815260200160002060040160019054906101000a900460ff161561178557600080fd5b85346001600083815260200190815260200160002060070160006001600085815260200190815260200160002060040160029054906101000a900473ffffffffffffffffffffffffffffffffffffffff1673ffffffffffffffffffffffffffffffffffffffff1673ffffffffffffffffffffffffffffffffffffffff16815260200190815260200160002054013373ffffffffffffffffffffffffffffffffffffffff1631101561183557600080fd5b866001600082815260200190815260200160002060070160006001600084815260200190815260200160002060040160029054906101000a900473ffffffffffffffffffffffffffffffffffffffff1673ffffffffffffffffffffffffffffffffffffffff1673ffffffffffffffffffffffffffffffffffffffff1681526020019081526020016000205434116118cb57600080fd5b33600160008a815260200190815260200160002060040160026101000a81548173ffffffffffffffffffffffffffffffffffffffff021916908373ffffffffffffffffffffffffffffffffffffffff16021790555034600160008a8152602001908152602001600020600501819055506001600089815260200190815260200160002060050154600160008a81526020019081526020016000206007016000600160008c815260200190815260200160002060040160029054906101000a900473ffffffffffffffffffffffffffffffffffffffff1673ffffffffffffffffffffffffffffffffffffffff1673ffffffffffffffffffffffffffffffffffffffff168152602001908152602001600020600082825401925050819055506000809054906101000a900473ffffffffffffffffffffffffffffffffffffffff1673ffffffffffffffffffffffffffffffffffffffff16636b7e3696338a6040518363ffffffff167c0100000000000000000000000000000000000000000000000000000000028152600401808373ffffffffffffffffffffffffffffffffffffffff1673ffffffffffffffffffffffffffffffffffffffff168152602001806020018381526020018281038252600d8152602001807f506c6163656420612042696421000000000000000000000000000000000000008152506020019350505050602060405180830381600087803b158015611ae557600080fd5b505af1158015611af9573d6000803e3d6000fd5b505050506040513d6020811015611b0f57600080fd5b81019080805190602001909291905050505060016000898152602001908152602001600020600601600081548092919060010191905055507f49e60d8d833f1250f6ede154509b047fe77c1eae57655e8176675b5f91af7b0a3334600160008c815260200190815260200160002060040160029054906101000a900473ffffffffffffffffffffffffffffffffffffffff16600160008d81526020019081526020016000206007016000600160008f815260200190815260200160002060040160029054906101000a900473ffffffffffffffffffffffffffffffffffffffff1673ffffffffffffffffffffffffffffffffffffffff1673ffffffffffffffffffffffffffffffffffffffff16815260200190815260200160002054604051808573ffffffffffffffffffffffffffffffffffffffff1673ffffffffffffffffffffffffffffffffffffffff1681526020018481526020018373ffffffffffffffffffffffffffffffffffffffff1673ffffffffffffffffffffffffffffffffffffffff16815260200182815260200194505050505060405180910390a17fef9e2d8e435f0509e385fd41e94559252a2981041dd8797ca42aaef7d729ec6c600160008a8152602001908152602001600020600601546040518082815260200191505060405180910390a160019650505050505050919050565b6060600160008381526020019081526020016000206003018054600181600116156101000203166002900480601f016020809104026020016040519081016040528092919081815260200182805460018160011615610100020316600290048015611db55780601f10611d8a57610100808354040283529160200191611db5565b820191906000526020600020905b815481529060010190602001808311611d9857829003601f168201915b50505050509050919050565b6000600254905090565b6000816001600082815260200190815260200160002060000160009054906101000a900473ffffffffffffffffffffffffffffffffffffffff1673ffffffffffffffffffffffffffffffffffffffff163373ffffffffffffffffffffffffffffffffffffffff1614611e3c57600080fd5b82600160008281526020019081526020016000206002015460016000838152602001908152602001600020600601541115611e7657600080fd5b836001600082815260200190815260200160002060040160009054906101000a900460ff1615611ea557600080fd5b846001600082815260200190815260200160002060040160019054906101000a900460ff1615611ed457600080fd5b600180600088815260200190815260200160002060040160016101000a81548160ff0219169083151502179055506000809054906101000a900473ffffffffffffffffffffffffffffffffffffffff1673ffffffffffffffffffffffffffffffffffffffff16636b7e369633886040518363ffffffff167c0100000000000000000000000000000000000000000000000000000000028152600401808373ffffffffffffffffffffffffffffffffffffffff1673ffffffffffffffffffffffffffffffffffffffff168152602001806020018381526020018281038252600e8152602001807f456e6420616e2041756374696f6e0000000000000000000000000000000000008152506020019350505050602060405180830381600087803b158015611fff57600080fd5b505af1158015612013573d6000803e3d6000fd5b505050506040513d602081101561202957600080fd5b8101908080519060200190929190505050507fc4d1d017283a5f3050c1bc312fa99dc1ed2eb473e52f0a4d4fabeaf690aefe4c60405160405180910390a16001945050505050919050565b60006001600083815260200190815260200160002060000160009054906101000a900473ffffffffffffffffffffffffffffffffffffffff169050919050565b600060016000838152602001908152602001600020600601549050919050565b828054600181600116156101000203166002900490600052602060002090601f016020900481019282601f1061211557805160ff1916838001178555612143565b82800160010185558215612143579182015b82811115612142578251825591602001919060010190612127565b5b5090506121509190612154565b5090565b61217691905b8082111561217257600081600090555060010161215a565b5090565b9056fe596f75206172652068696768657374206269646465726d20416e64206e6f202420746f207769746864726177a165627a7a723058205cfb941441585d8c76e70dfdff42ec5d3cc1c30b7c648dc02efa6f2b1583c0e10029",
  "source": "pragma solidity ^0.5.7;\r\n\r\nimport {Oracle} from './Oracle.sol';\r\n\r\ncontract AuctionFactory {\r\n    Oracle oracle;\r\n    mapping(uint => Auction) auctions;\r\n    uint auctionNum = 0;\r\n\r\n    \r\n    event AuctionCreated(address auctionContract, address owner, uint numAuctions, address[] allAuctions);\r\n    event getAddress(address);\r\n    event getBlockNumber(uint);\r\n    \r\n    event track(address,uint, uint, string, address);\r\n    event LogBid(address bidder, uint bid, address highestBidder, uint highestBid);\r\n    event LogWithdrawal(address withdrawer, address withdrawalAccount, uint amount);\r\n    event LogCanceled();\r\n    event LogOwnerEnd();\r\n\r\n    event AuctionCnt(uint cnt);\r\n\r\n    \r\n    struct Auction {\r\n        // static\r\n        address owner;\r\n        uint bidIncrement;\r\n        uint endBid;\r\n        string product;\r\n    \r\n        // state\r\n        bool canceled;\r\n        bool ownerEnd;\r\n        address highestBidder;\r\n        uint highestBid;\r\n        uint bidNum;\r\n        mapping(address => uint256) fundsByBidder;\r\n        bool ownerHasWithdrawn;\r\n    }\r\n    \r\n\r\n    constructor()public {\r\n    }\r\n\r\n    function createAuction(uint endBid, address _oracle, string memory _product) public returns(uint) {\r\n        auctionNum++;\r\n        \r\n        oracle = Oracle(_oracle);\r\n        \r\n        auctions[auctionNum].owner = msg.sender;\r\n\r\n        auctions[auctionNum].endBid= endBid;\r\n        auctions[auctionNum].canceled = false;\r\n        auctions[auctionNum].ownerEnd = false;\r\n\r\n        auctions[auctionNum].product = _product;\r\n\r\n        \r\n        //emit getAddress(address(newAuction));\r\n        \r\n        oracle.operationCallback(msg.sender, \"Created a new Auction!\", auctionNum);\r\n        oracle.newAuctionCallback(auctionNum);\r\n        \r\n        return auctionNum;\r\n    }\r\n    \r\n\r\n    \r\n    function placeBid(uint auctionID)public\r\n        payable\r\n        onlyBeforeEnd(auctionID)\r\n        onlyNotCanceled(auctionID)\r\n        onlyNotOwner(auctionID)\r\n        onlyNotOwnerEnd(auctionID)\r\n        enoughAmount(auctionID)\r\n        largerThanBefore(auctionID)\r\n        returns (bool success) \r\n    { \r\n        auctions[auctionID].highestBidder = msg.sender;\r\n        \r\n        \r\n        auctions[auctionID].highestBid=msg.value;\r\n        auctions[auctionID].fundsByBidder[auctions[auctionID].highestBidder]+= auctions[auctionID].highestBid;\r\n    \r\n        oracle.operationCallback(msg.sender, \"Placed a Bid!\", auctionID);\r\n        auctions[auctionID].bidNum++;\r\n        emit LogBid(msg.sender, msg.value, auctions[auctionID].highestBidder, auctions[auctionID].fundsByBidder[auctions[auctionID].highestBidder]);\r\n        emit AuctionCnt(auctions[auctionID].bidNum);\r\n        return true;\r\n    }\r\n    \r\n    function endAuction(uint auctionID)\r\n        onlyOwner(auctionID)\r\n        onlyBeforeEnd(auctionID)\r\n        onlyNotCanceled(auctionID)\r\n        onlyNotOwnerEnd(auctionID)\r\n        public\r\n        returns (bool success)\r\n    {\r\n        auctions[auctionID].ownerEnd = true;\r\n        oracle.operationCallback(msg.sender, \"End an Auction\", auctionID);\r\n        emit LogOwnerEnd();\r\n        return true;\r\n    }\r\n    \r\n    function cancelAuction(uint auctionID)\r\n        onlyOwner(auctionID)\r\n        onlyBeforeEnd(auctionID)\r\n        onlyNotCanceled(auctionID)\r\n        onlyNotOwnerEnd(auctionID)\r\n\r\n        public\r\n        returns (bool success)\r\n    {\r\n        auctions[auctionID].canceled = true;\r\n        oracle.operationCallback(msg.sender, \"Canceled an Auction\", auctionID);\r\n        emit LogCanceled();\r\n        return true;\r\n    }\r\n    \r\n    /// Withdraw a bid that was overbid.\r\n    function withdraw(uint auctionID)\r\n        onlyEndedOrCanceled(auctionID)\r\n        notWithdrawYet(auctionID)\r\n        public\r\n        returns (bool success)\r\n    {\r\n        //this function is runned by frontend when it has triggered as auction ended or canceled by a user\r\n        address withdrawalAccount;\r\n        uint withdrawalAmount;\r\n\r\n        if (auctions[auctionID].canceled) {\r\n            //withdraw the money if it is canceled\r\n            withdrawalAccount = msg.sender;\r\n            withdrawalAmount = auctions[auctionID].fundsByBidder[withdrawalAccount];\r\n        } else {\r\n            if (msg.sender == auctions[auctionID].owner) {\r\n                //only owner can withdraw the highestBidder money\r\n                withdrawalAccount = auctions[auctionID].highestBidder;\r\n                withdrawalAmount = auctions[auctionID].fundsByBidder[auctions[auctionID].highestBidder];\r\n                auctions[auctionID].ownerHasWithdrawn = true;\r\n                \r\n            } else if(msg.sender == auctions[auctionID].highestBidder){\r\n                \r\n                withdrawalAccount = msg.sender;\r\n                withdrawalAmount = auctions[auctionID].fundsByBidder[withdrawalAccount] - auctions[auctionID].highestBid;\r\n                \r\n                require(withdrawalAmount>=0, \"You are highest bidderm And no $ to withdraw\");\r\n\r\n            }\r\n            else {\r\n                //others except the highest bidder can get the money\r\n                withdrawalAccount = msg.sender;\r\n                withdrawalAmount = auctions[auctionID].fundsByBidder[withdrawalAccount];\r\n            }\r\n        }\r\n        if (!msg.sender.send(withdrawalAmount)) revert();\r\n\r\n        emit LogWithdrawal(msg.sender, withdrawalAccount, withdrawalAmount);\r\n        auctions[auctionID].fundsByBidder[withdrawalAccount] = 0;   //if it has refunded, reset the money as 0 so that it won't compute this function again\r\n        oracle.operationCallback(withdrawalAccount, \"Withdrawed Money\", auctionID);\r\n        return true;\r\n    }\r\n    \r\n    function getIsEnd(uint auctionID) public view returns (bool){   //determine if it is ended\r\n        require(auctionID<=auctionNum, \"Please Input auctionID\");\r\n        \r\n        if(auctions[auctionID].ownerEnd||auctions[auctionID].canceled||auctions[auctionID].bidNum>=auctions[auctionID].endBid){\r\n            return true;\r\n        }\r\n        return false;\r\n    }\r\n    \r\n    function getHighestBid(uint auctionID)public\r\n        view\r\n        returns (uint)\r\n    {\r\n        return auctions[auctionID].fundsByBidder[auctions[auctionID].highestBidder];\r\n    }\r\n    \r\n    \r\n    function getHighestBidderAddress(uint auctionID)public\r\n        view\r\n        returns (address)\r\n    {\r\n        return auctions[auctionID].highestBidder;\r\n    }\r\n    \r\n    function getBidNum(uint auctionID)public\r\n        view\r\n        returns (uint)\r\n    {\r\n        return auctions[auctionID].bidNum;\r\n    }\r\n    \r\n    function getOwnerAddress(uint auctionID)public\r\n        view\r\n        returns (address)\r\n    {\r\n        return auctions[auctionID].owner;\r\n    }\r\n    \r\n    function getlatestID()public\r\n        view\r\n        returns (uint)\r\n    {\r\n        return auctionNum;\r\n    }\r\n    \r\n    function getProductName(uint auctionID)public\r\n        view\r\n        returns (string memory)\r\n    {\r\n        return auctions[auctionID].product;\r\n    }\r\n\r\n\r\n    modifier onlyOwner(uint auctionID) {\r\n        if (msg.sender != auctions[auctionID].owner ) revert();\r\n        _;\r\n    }\r\n\r\n    modifier onlyNotOwner(uint auctionID) {\r\n        if (msg.sender == auctions[auctionID].owner ) revert();\r\n        _;\r\n    }\r\n\r\n    modifier enoughAmount(uint auctionID){\r\n        if(msg.sender.balance< auctions[auctionID].fundsByBidder[auctions[auctionID].highestBidder] + msg.value) revert(); //check if the user has sufficient amount to bid\r\n        _;\r\n    }\r\n\r\n    modifier largerThanBefore(uint auctionID){\r\n        if(msg.value<= auctions[auctionID].fundsByBidder[auctions[auctionID].highestBidder])revert();\r\n        _;\r\n    }\r\n\r\n    modifier onlyBeforeEnd(uint auctionID) {\r\n        if (auctions[auctionID].bidNum > auctions[auctionID].endBid) revert();\r\n        _;\r\n    }\r\n\r\n    modifier onlyNotCanceled(uint auctionID) {\r\n        if (auctions[auctionID].canceled) revert();\r\n        _;\r\n    }\r\n    \r\n    modifier onlyNotOwnerEnd(uint auctionID) {\r\n        if (auctions[auctionID].ownerEnd) revert();\r\n        _;\r\n    }\r\n\r\n    modifier onlyEndedOrCanceled(uint auctionID) {\r\n        require((auctions[auctionID].bidNum >= auctions[auctionID].endBid)|| auctions[auctionID].canceled || auctions[auctionID].ownerEnd, \"It is not end or cancel\" );\r\n        _;\r\n    }\r\n    \r\n    modifier notHighestBidder(uint auctionID){\r\n        if(msg.sender== auctions[auctionID].highestBidder) revert();\r\n        _;\r\n    }\r\n    \r\n    modifier notWithdrawYet(uint auctionID){    //check if the user is withdrawn or not\r\n        if((auctions[auctionID].owner!=msg.sender&&auctions[auctionID].fundsByBidder[msg.sender]==0)||(auctions[auctionID].owner==msg.sender&&auctions[auctionID].fundsByBidder[auctions[auctionID].highestBidder]!=0)) revert();\r\n        _;\r\n    }\r\n}\r\n\r\n",
  "sourcePath": "C:/Users/node/Desktop/pjpj/code/contracts/AuctionFactory.sol",
  "compiler": {
    "name": "solc",
    "version": "0.5.7+commit.6da8b019.Emscripten.clang"
  },
  "schemaVersion": "3.0.6",
  "updatedAt": "2019-04-26T06:32:46.214Z",
  "devdoc": {
    "methods": {}
  },
  "userdoc": {
    "methods": {
      "withdraw(uint256)": {
        "notice": "Withdraw a bid that was overbid."
      }
    }
  }
}