{
  "contractName": "Oracle",
  "abi": [
    {
      "constant": true,
      "inputs": [],
      "name": "cbAddress",
      "outputs": [
        {
          "name": "",
          "type": "address"
        }
      ],
      "payable": false,
      "stateMutability": "view",
      "type": "function",
      "signature": "0xc281d19e"
    },
    {
      "inputs": [],
      "payable": false,
      "stateMutability": "nonpayable",
      "type": "constructor",
      "signature": "constructor"
    },
    {
      "anonymous": false,
      "inputs": [
        {
          "indexed": false,
          "name": "",
          "type": "uint256"
        }
      ],
      "name": "newAuction",
      "type": "event",
      "signature": "0xda83fc749f1dad2f8cdb0a38a3844a5da2f6da5554025c13adf3ecc8127d0f1e"
    },
    {
      "anonymous": false,
      "inputs": [
        {
          "indexed": false,
          "name": "",
          "type": "address"
        },
        {
          "indexed": false,
          "name": "",
          "type": "string"
        },
        {
          "indexed": false,
          "name": "",
          "type": "uint256"
        }
      ],
      "name": "newMsg",
      "type": "event",
      "signature": "0x5e6762dff00a09def078a5bf97b8d896958672c0bf1261ec960ef52f2546a2d1"
    },
    {
      "anonymous": false,
      "inputs": [
        {
          "indexed": false,
          "name": "",
          "type": "uint256"
        }
      ],
      "name": "QueryAuctionsNum",
      "type": "event",
      "signature": "0x00a52ccd609ec1daa6522f23f6349e0e0080898275dc83df55c85885b09a8794"
    },
    {
      "anonymous": false,
      "inputs": [
        {
          "indexed": false,
          "name": "",
          "type": "address"
        },
        {
          "indexed": false,
          "name": "",
          "type": "string"
        },
        {
          "indexed": false,
          "name": "",
          "type": "uint256"
        }
      ],
      "name": "QueryMsg",
      "type": "event",
      "signature": "0x6670de1b87487df9a9f547fc43fe1c426fd03998c5b249a291a1db27085389b5"
    },
    {
      "anonymous": false,
      "inputs": [
        {
          "indexed": false,
          "name": "",
          "type": "uint256"
        }
      ],
      "name": "QueryMsgNum",
      "type": "event",
      "signature": "0x9b7179d68dc911aba55c25a758e7a1c6e7a58714ee689267b962017d5393bb9a"
    },
    {
      "anonymous": false,
      "inputs": [
        {
          "indexed": false,
          "name": "",
          "type": "uint256"
        }
      ],
      "name": "QueryAuctions",
      "type": "event",
      "signature": "0xbd2b6ecb8e0369c8e37fdea7d293250ab9b2d5314aa6c14ed6e2b482d230164c"
    },
    {
      "anonymous": false,
      "inputs": [
        {
          "indexed": false,
          "name": "",
          "type": "uint256"
        }
      ],
      "name": "checkMSGNUM",
      "type": "event",
      "signature": "0x60da3e50c8782c9d6427b1ccbd19b4a9511f1b2bd46792f2291ec37cda0a57da"
    },
    {
      "anonymous": false,
      "inputs": [
        {
          "indexed": false,
          "name": "",
          "type": "uint256"
        }
      ],
      "name": "checkMSGNUM2222",
      "type": "event",
      "signature": "0x9e1c6a4b648e0f422765847f57f5e7d856163215fdf58e7b1ec0aafc3d5d59a3"
    },
    {
      "constant": false,
      "inputs": [
        {
          "name": "_cbAddress",
          "type": "address"
        }
      ],
      "name": "setCbAddress",
      "outputs": [],
      "payable": false,
      "stateMutability": "nonpayable",
      "type": "function",
      "signature": "0xb62a717c"
    },
    {
      "constant": false,
      "inputs": [
        {
          "name": "_sender",
          "type": "address"
        },
        {
          "name": "_operation",
          "type": "string"
        },
        {
          "name": "auctionID",
          "type": "uint256"
        }
      ],
      "name": "operationCallback",
      "outputs": [
        {
          "name": "",
          "type": "uint256"
        }
      ],
      "payable": false,
      "stateMutability": "nonpayable",
      "type": "function",
      "signature": "0x6b7e3696"
    },
    {
      "constant": false,
      "inputs": [
        {
          "name": "auction",
          "type": "uint256"
        }
      ],
      "name": "newAuctionCallback",
      "outputs": [],
      "payable": false,
      "stateMutability": "nonpayable",
      "type": "function",
      "signature": "0x574d2ae3"
    },
    {
      "constant": false,
      "inputs": [
        {
          "name": "index",
          "type": "uint256"
        }
      ],
      "name": "getAuction",
      "outputs": [
        {
          "name": "",
          "type": "uint256"
        }
      ],
      "payable": false,
      "stateMutability": "nonpayable",
      "type": "function",
      "signature": "0x78bd7935"
    },
    {
      "constant": false,
      "inputs": [],
      "name": "getNumOfAuction",
      "outputs": [
        {
          "name": "",
          "type": "uint256"
        }
      ],
      "payable": false,
      "stateMutability": "nonpayable",
      "type": "function",
      "signature": "0x638862ee"
    },
    {
      "constant": false,
      "inputs": [
        {
          "name": "index",
          "type": "uint256"
        }
      ],
      "name": "getOperation",
      "outputs": [
        {
          "name": "",
          "type": "string"
        }
      ],
      "payable": false,
      "stateMutability": "nonpayable",
      "type": "function",
      "signature": "0x202e3924"
    },
    {
      "constant": false,
      "inputs": [],
      "name": "getNumOfOperation",
      "outputs": [
        {
          "name": "",
          "type": "uint256"
        }
      ],
      "payable": false,
      "stateMutability": "nonpayable",
      "type": "function",
      "signature": "0xe821cb8c"
    }
  ],
  "bytecode": "0x6080604052600060025533600460006101000a81548173ffffffffffffffffffffffffffffffffffffffff021916908373ffffffffffffffffffffffffffffffffffffffff160217905550600060065534801561005b57600080fd5b50610bc08061006b6000396000f3fe608060405234801561001057600080fd5b50600436106100a5576000357c01000000000000000000000000000000000000000000000000000000009004806378bd79351161007857806378bd793514610296578063b62a717c146102d8578063c281d19e1461031c578063e821cb8c14610366576100a5565b8063202e3924146100aa578063574d2ae314610151578063638862ee1461017f5780636b7e36961461019d575b600080fd5b6100d6600480360360208110156100c057600080fd5b8101908080359060200190929190505050610384565b6040518080602001828103825283818151815260200191508051906020019080838360005b838110156101165780820151818401526020810190506100fb565b50505050905090810190601f1680156101435780820380516001836020036101000a031916815260200191505b509250505060405180910390f35b61017d6004803603602081101561016757600080fd5b810190808035906020019092919050505061058e565b005b6101876105f4565b6040518082815260200191505060405180910390f35b610280600480360360608110156101b357600080fd5b81019080803573ffffffffffffffffffffffffffffffffffffffff169060200190929190803590602001906401000000008111156101f057600080fd5b82018360208201111561020257600080fd5b8035906020019184600183028401116401000000008311171561022457600080fd5b91908080601f016020809104026020016040519081016040528093929190818152602001838380828437600081840152601f19601f8201169050808301925050505050505091929192908035906020019092919050505061063c565b6040518082815260200191505060405180910390f35b6102c2600480360360208110156102ac57600080fd5b8101908080359060200190929190505050610995565b6040518082815260200191505060405180910390f35b61031a600480360360208110156102ee57600080fd5b81019080803573ffffffffffffffffffffffffffffffffffffffff169060200190929190505050610a04565b005b610324610a48565b604051808273ffffffffffffffffffffffffffffffffffffffff1673ffffffffffffffffffffffffffffffffffffffff16815260200191505060405180910390f35b61036e610a6e565b6040518082815260200191505060405180910390f35b60607f6670de1b87487df9a9f547fc43fe1c426fd03998c5b249a291a1db27085389b560008084815260200190815260200160002060000160009054906101000a900473ffffffffffffffffffffffffffffffffffffffff1660008085815260200190815260200160002060020160008086815260200190815260200160002060010154604051808473ffffffffffffffffffffffffffffffffffffffff1673ffffffffffffffffffffffffffffffffffffffff168152602001806020018381526020018281038252848181546001816001161561010002031660029004815260200191508054600181600116156101000203166002900480156104c95780601f1061049e576101008083540402835291602001916104c9565b820191906000526020600020905b8154815290600101906020018083116104ac57829003601f168201915b505094505050505060405180910390a16000808381526020019081526020016000206002018054600181600116156101000203166002900480601f0160208091040260200160405190810160405280929190818152602001828054600181600116156101000203166002900480156105825780601f1061055757610100808354040283529160200191610582565b820191906000526020600020905b81548152906001019060200180831161056557829003601f168201915b50505050509050919050565b60038190806001815401808255809150509060018203906000526020600020016000909192909190915055507fda83fc749f1dad2f8cdb0a38a3844a5da2f6da5554025c13adf3ecc8127d0f1e816040518082815260200191505060405180910390a150565b60007ea52ccd609ec1daa6522f23f6349e0e0080898275dc83df55c85885b09a87946003805490506040518082815260200191505060405180910390a1600380549050905090565b6000610646610ab1565b84816000019073ffffffffffffffffffffffffffffffffffffffff16908173ffffffffffffffffffffffffffffffffffffffff16815250508281602001818152505083816040018190525080600080600254815260200190815260200160002060008201518160000160006101000a81548173ffffffffffffffffffffffffffffffffffffffff021916908373ffffffffffffffffffffffffffffffffffffffff160217905550602082015181600101556040820151816002019080519060200190610713929190610aef565b5060608201518160030155905050600660008154809291906001019190505550600460009054906101000a900473ffffffffffffffffffffffffffffffffffffffff1673ffffffffffffffffffffffffffffffffffffffff163373ffffffffffffffffffffffffffffffffffffffff161415801561079d5750600060026006548161079a57fe5b06145b156107b5576002600081548092919060010191905055505b7f60da3e50c8782c9d6427b1ccbd19b4a9511f1b2bd46792f2291ec37cda0a57da6002546040518082815260200191505060405180910390a1600254600160003373ffffffffffffffffffffffffffffffffffffffff1673ffffffffffffffffffffffffffffffffffffffff168152602001908152602001600020600301819055507f5e6762dff00a09def078a5bf97b8d896958672c0bf1261ec960ef52f2546a2d1858585604051808473ffffffffffffffffffffffffffffffffffffffff1673ffffffffffffffffffffffffffffffffffffffff16815260200180602001838152602001828103825284818151815260200191508051906020019080838360005b838110156108d35780820151818401526020810190506108b8565b50505050905090810190601f1680156109005780820380516001836020036101000a031916815260200191505b5094505050505060405180910390a17f9e1c6a4b648e0f422765847f57f5e7d856163215fdf58e7b1ec0aafc3d5d59a36002546040518082815260200191505060405180910390a1600160003373ffffffffffffffffffffffffffffffffffffffff1673ffffffffffffffffffffffffffffffffffffffff168152602001908152602001600020600301549150509392505050565b60007fbd2b6ecb8e0369c8e37fdea7d293250ab9b2d5314aa6c14ed6e2b482d230164c600383815481106109c557fe5b90600052602060002001546040518082815260200191505060405180910390a1600382815481106109f257fe5b90600052602060002001549050919050565b80600560006101000a81548173ffffffffffffffffffffffffffffffffffffffff021916908373ffffffffffffffffffffffffffffffffffffffff16021790555050565b600560009054906101000a900473ffffffffffffffffffffffffffffffffffffffff1681565b60007f9b7179d68dc911aba55c25a758e7a1c6e7a58714ee689267b962017d5393bb9a6002546040518082815260200191505060405180910390a1600254905090565b6040518060800160405280600073ffffffffffffffffffffffffffffffffffffffff1681526020016000815260200160608152602001600081525090565b828054600181600116156101000203166002900490600052602060002090601f016020900481019282601f10610b3057805160ff1916838001178555610b5e565b82800160010185558215610b5e579182015b82811115610b5d578251825591602001919060010190610b42565b5b509050610b6b9190610b6f565b5090565b610b9191905b80821115610b8d576000816000905550600101610b75565b5090565b9056fea165627a7a72305820f10921941f2ce0e87cc1e10e161d6c6d033dbddd1fae20d91762f3b4a38509020029",
  "source": "pragma solidity ^0.5.7;\r\n\r\ncontract Oracle {\r\n    struct Msg{\r\n        address sender;\r\n        uint auction;\r\n        string operation;\r\n        uint Auctioncnt;\r\n    }\r\n    mapping(uint=>Msg) Msgs;\r\n    //new add\r\n    mapping (address=>Msg) tmpmsgs;\r\n    \r\n    uint messagesNum = 0;\r\n    uint[]Auctions;\r\n    address owner= msg.sender;\r\n    \r\n    address public cbAddress; // callback address\r\n    \r\n    constructor ()public  {\r\n\r\n    }\r\n\r\n    event newAuction(uint);\r\n    event newMsg(address,string, uint);\r\n    event QueryAuctionsNum(uint);\r\n    event QueryMsg(address, string , uint);\r\n    event QueryMsgNum(uint);\r\n    event QueryAuctions(uint);\r\n\r\n    function setCbAddress(address _cbAddress) public {\r\n        cbAddress = _cbAddress;\r\n    }\r\n\r\n    event checkMSGNUM(uint);\r\n    event checkMSGNUM2222(uint);\r\n    \r\n    uint count=0;\r\n    function operationCallback(address _sender, string memory _operation, uint auctionID)public returns (uint){\r\n        Msg memory m;\r\n        m.sender=_sender;\r\n        m.auction = auctionID;\r\n        m.operation = _operation;\r\n        Msgs[messagesNum]=m;\r\n        \r\n        count++;\r\n        if (msg.sender != owner && count%2==0)\r\n        {\r\n            messagesNum++;\r\n        }\r\n        \r\n        \r\n        emit checkMSGNUM(messagesNum);\r\n        \r\n        tmpmsgs[msg.sender].Auctioncnt = messagesNum;\r\n        emit newMsg(_sender, _operation, auctionID);\r\n        \r\n        emit checkMSGNUM2222(messagesNum);\r\n        \r\n        return tmpmsgs[msg.sender].Auctioncnt;\r\n\r\n\r\n    }\r\n    \r\n    function newAuctionCallback(uint auction)public{\r\n        Auctions.push(auction);\r\n        emit newAuction(auction);\r\n    }\r\n    \r\n    function getAuction(uint index)public returns(uint){\r\n        emit QueryAuctions(Auctions[index]);\r\n        \r\n        return Auctions[index];\r\n    }\r\n    \r\n    function getNumOfAuction()public returns(uint){\r\n        emit QueryAuctionsNum(Auctions.length);\r\n        return Auctions.length;\r\n\r\n    }\r\n    \r\n    function getOperation(uint index)public returns(string memory){\r\n        \r\n        emit QueryMsg(Msgs[index].sender,Msgs[index].operation,Msgs[index].auction);\r\n        return Msgs[index].operation;\r\n    }\r\n\r\n    function getNumOfOperation ()public returns(uint){\r\n        \r\n        emit QueryMsgNum(messagesNum);\r\n        return messagesNum;\r\n    }\r\n    \r\n}\r\n\r\n",
  "sourcePath": "C:\\Users\\node\\Desktop\\pjpj\\code\\contracts\\Oracle.sol",
  "compiler": {
    "name": "solc",
    "version": "0.5.7+commit.6da8b019.Emscripten.clang"
  },
  "schemaVersion": "3.0.6",
  "updatedAt": "2019-04-26T06:32:46.199Z",
  "devdoc": {
    "methods": {}
  },
  "userdoc": {
    "methods": {}
  }
}