{
  "contractName": "AuctionFactory",
  "abi": [
    {
      "constant": true,
      "inputs": [
        {
          "name": "",
          "type": "uint256"
        }
      ],
      "name": "auctions",
      "outputs": [
        {
          "name": "",
          "type": "address"
        }
      ],
      "payable": false,
      "stateMutability": "view",
      "type": "function",
      "signature": "0x571a26a0"
    },
    {
      "inputs": [],
      "payable": false,
      "stateMutability": "nonpayable",
      "type": "constructor",
      "signature": "constructor"
    },
    {
      "anonymous": false,
      "inputs": [
        {
          "indexed": false,
          "name": "auctionContract",
          "type": "address"
        },
        {
          "indexed": false,
          "name": "owner",
          "type": "address"
        },
        {
          "indexed": false,
          "name": "numAuctions",
          "type": "uint256"
        },
        {
          "indexed": false,
          "name": "allAuctions",
          "type": "address[]"
        }
      ],
      "name": "AuctionCreated",
      "type": "event",
      "signature": "0x0d314047f0d1e39dbbd521f0844c35332083a15926b906540faa68e1a4262b68"
    },
    {
      "anonymous": false,
      "inputs": [
        {
          "indexed": false,
          "name": "",
          "type": "address"
        }
      ],
      "name": "getAddress",
      "type": "event",
      "signature": "0xae22c57db0d6f837c963673636539f7f08422a2bdd477a0ab76307205bc4a370"
    },
    {
      "anonymous": false,
      "inputs": [
        {
          "indexed": false,
          "name": "",
          "type": "uint256"
        }
      ],
      "name": "getBlockNumber",
      "type": "event",
      "signature": "0x50c0fbe4c022d1d92306c9777471b26c7abffc120d9081211b4de64fec304225"
    },
    {
      "constant": false,
      "inputs": [
        {
          "name": "bidIncrement",
          "type": "uint256"
        },
        {
          "name": "startBlock",
          "type": "uint256"
        },
        {
          "name": "endBlock",
          "type": "uint256"
        },
        {
          "name": "ipfsHash",
          "type": "string"
        }
      ],
      "name": "createAuction",
      "outputs": [
        {
          "name": "",
          "type": "address"
        }
      ],
      "payable": false,
      "stateMutability": "nonpayable",
      "type": "function",
      "signature": "0x15cda1af"
    },
    {
      "constant": true,
      "inputs": [],
      "name": "allAuctions",
      "outputs": [
        {
          "name": "",
          "type": "address[]"
        }
      ],
      "payable": false,
      "stateMutability": "view",
      "type": "function",
      "signature": "0x1bbcd4a5"
    }
  ],
  "bytecode": "0x608060405234801561001057600080fd5b506114c2806100206000396000f3fe608060405234801561001057600080fd5b506004361061005e576000357c01000000000000000000000000000000000000000000000000000000009004806315cda1af146100635780631bbcd4a51461017c578063571a26a0146101db575b600080fd5b61013a6004803603608081101561007957600080fd5b81019080803590602001909291908035906020019092919080359060200190929190803590602001906401000000008111156100b457600080fd5b8201836020820111156100c657600080fd5b803590602001918460018302840111640100000000831117156100e857600080fd5b91908080601f016020809104026020016040519081016040528093929190818152602001838380828437600081840152601f19601f820116905080830192505050505050509192919290505050610249565b604051808273ffffffffffffffffffffffffffffffffffffffff1673ffffffffffffffffffffffffffffffffffffffff16815260200191505060405180910390f35b6101846103a1565b6040518080602001828103825283818151815260200191508051906020019060200280838360005b838110156101c75780820151818401526020810190506101ac565b505050509050019250505060405180910390f35b610207600480360360208110156101f157600080fd5b810190808035906020019092919050505061042f565b604051808273ffffffffffffffffffffffffffffffffffffffff1673ffffffffffffffffffffffffffffffffffffffff16815260200191505060405180910390f35b600080338660014301868661025c61046d565b808673ffffffffffffffffffffffffffffffffffffffff1673ffffffffffffffffffffffffffffffffffffffff16815260200185815260200184815260200183815260200180602001828103825283818151815260200191508051906020019080838360005b838110156102dd5780820151818401526020810190506102c2565b50505050905090810190601f16801561030a5780820380516001836020036101000a031916815260200191505b509650505050505050604051809103906000f08015801561032f573d6000803e3d6000fd5b5090507fae22c57db0d6f837c963673636539f7f08422a2bdd477a0ab76307205bc4a37081604051808273ffffffffffffffffffffffffffffffffffffffff1673ffffffffffffffffffffffffffffffffffffffff16815260200191505060405180910390a180915050949350505050565b6060600080548060200260200160405190810160405280929190818152602001828054801561042557602002820191906000526020600020905b8160009054906101000a900473ffffffffffffffffffffffffffffffffffffffff1673ffffffffffffffffffffffffffffffffffffffff16815260200190600101908083116103db575b5050505050905090565b60008181548110151561043e57fe5b906000526020600020016000915054906101000a900473ffffffffffffffffffffffffffffffffffffffff1681565b6040516110198061047e8339019056fe60806040523480156200001157600080fd5b506040516200101938038062001019833981018060405260a08110156200003757600080fd5b810190808051906020019092919080519060200190929190805190602001909291908051906020019092919080516401000000008111156200007857600080fd5b828101905060208101848111156200008f57600080fd5b8151856001820283011164010000000082111715620000ad57600080fd5b5050929190505050846000806101000a81548173ffffffffffffffffffffffffffffffffffffffff021916908373ffffffffffffffffffffffffffffffffffffffff1602179055508360018190555082600281905550816003819055508060049080519060200190620001229291906200012e565b505050505050620001dd565b828054600181600116156101000203166002900490600052602060002090601f016020900481019282601f106200017157805160ff1916838001178555620001a2565b82800160010185558215620001a2579182015b82811115620001a157825182559160200191906001019062000184565b5b509050620001b19190620001b5565b5090565b620001da91905b80821115620001d6576000816000905550600101620001bc565b5090565b90565b610e2c80620001ed6000396000f3fe6080604052600436106100df576000357c0100000000000000000000000000000000000000000000000000000000900480638fa8b7901161009c578063c623674f11610076578063c623674f146102cb578063ce10cf801461035b578063ecfc7ecc146103c0578063f5b56c56146103e2576100df565b80638fa8b7901461021a57806391f9015714610249578063b3cc167a146102a0576100df565b8063083c6323146100e45780633ccfd60b1461010f5780633f9942ff1461013e57806348cd4cb11461016d5780634979440a146101985780638da5cb5b146101c3575b600080fd5b3480156100f057600080fd5b506100f961040d565b6040518082815260200191505060405180910390f35b34801561011b57600080fd5b50610124610413565b604051808215151515815260200191505060405180910390f35b34801561014a57600080fd5b50610153610830565b604051808215151515815260200191505060405180910390f35b34801561017957600080fd5b50610182610843565b6040518082815260200191505060405180910390f35b3480156101a457600080fd5b506101ad610849565b6040518082815260200191505060405180910390f35b3480156101cf57600080fd5b506101d86108b2565b604051808273ffffffffffffffffffffffffffffffffffffffff1673ffffffffffffffffffffffffffffffffffffffff16815260200191505060405180910390f35b34801561022657600080fd5b5061022f6108d7565b604051808215151515815260200191505060405180910390f35b34801561025557600080fd5b5061025e6109ab565b604051808273ffffffffffffffffffffffffffffffffffffffff1673ffffffffffffffffffffffffffffffffffffffff16815260200191505060405180910390f35b3480156102ac57600080fd5b506102b56109d1565b6040518082815260200191505060405180910390f35b3480156102d757600080fd5b506102e06109d7565b6040518080602001828103825283818151815260200191508051906020019080838360005b83811015610320578082015181840152602081019050610305565b50505050905090810190601f16801561034d5780820380516001836020036101000a031916815260200191505b509250505060405180910390f35b34801561036757600080fd5b506103aa6004803603602081101561037e57600080fd5b81019080803573ffffffffffffffffffffffffffffffffffffffff169060200190929190505050610a75565b6040518082815260200191505060405180910390f35b6103c8610a8d565b604051808215151515815260200191505060405180910390f35b3480156103ee57600080fd5b506103f7610dde565b6040518082815260200191505060405180910390f35b60035481565b6000600354431080156104335750600560009054906101000a900460ff16155b1561043d57600080fd5b600080600560009054906101000a900460ff161561049f57339150600860008373ffffffffffffffffffffffffffffffffffffffff1673ffffffffffffffffffffffffffffffffffffffff1681526020019081526020016000205490506106ed565b6000809054906101000a900473ffffffffffffffffffffffffffffffffffffffff1673ffffffffffffffffffffffffffffffffffffffff163373ffffffffffffffffffffffffffffffffffffffff16141561053e57600760009054906101000a900473ffffffffffffffffffffffffffffffffffffffff16915060065490506001600960006101000a81548160ff0219169083151502179055506106ec565b600760009054906101000a900473ffffffffffffffffffffffffffffffffffffffff1673ffffffffffffffffffffffffffffffffffffffff163373ffffffffffffffffffffffffffffffffffffffff1614156106a557600760009054906101000a900473ffffffffffffffffffffffffffffffffffffffff169150600960009054906101000a900460ff16156106375760086000600760009054906101000a900473ffffffffffffffffffffffffffffffffffffffff1673ffffffffffffffffffffffffffffffffffffffff1673ffffffffffffffffffffffffffffffffffffffff1681526020019081526020016000205490506106a0565b60065460086000600760009054906101000a900473ffffffffffffffffffffffffffffffffffffffff1673ffffffffffffffffffffffffffffffffffffffff1673ffffffffffffffffffffffffffffffffffffffff168152602001908152602001600020540390505b6106eb565b339150600860008373ffffffffffffffffffffffffffffffffffffffff1673ffffffffffffffffffffffffffffffffffffffff1681526020019081526020016000205490505b5b5b60008114156106fb57600080fd5b80600860008473ffffffffffffffffffffffffffffffffffffffff1673ffffffffffffffffffffffffffffffffffffffff168152602001908152602001600020600082825403925050819055503373ffffffffffffffffffffffffffffffffffffffff166108fc829081150290604051600060405180830381858888f19350505050151561078857600080fd5b7f0ec497a8ae5b1ba29c60470ef651def995fac3deebbdcc56c47a4e5f51a4c2bd338383604051808473ffffffffffffffffffffffffffffffffffffffff1673ffffffffffffffffffffffffffffffffffffffff1681526020018373ffffffffffffffffffffffffffffffffffffffff1673ffffffffffffffffffffffffffffffffffffffff168152602001828152602001935050505060405180910390a160019250505090565b600560009054906101000a900460ff1681565b60025481565b600060086000600760009054906101000a900473ffffffffffffffffffffffffffffffffffffffff1673ffffffffffffffffffffffffffffffffffffffff1673ffffffffffffffffffffffffffffffffffffffff16815260200190815260200160002054905090565b6000809054906101000a900473ffffffffffffffffffffffffffffffffffffffff1681565b60008060009054906101000a900473ffffffffffffffffffffffffffffffffffffffff1673ffffffffffffffffffffffffffffffffffffffff163373ffffffffffffffffffffffffffffffffffffffff1614151561093457600080fd5b60035443111561094357600080fd5b600560009054906101000a900460ff161561095d57600080fd5b6001600560006101000a81548160ff0219169083151502179055507f462b6ca7f632601af1295aeb320851f50e8e630a309173f23535845ea4bfb3b960405160405180910390a16001905090565b600760009054906101000a900473ffffffffffffffffffffffffffffffffffffffff1681565b60015481565b60048054600181600116156101000203166002900480601f016020809104026020016040519081016040528092919081815260200182805460018160011615610100020316600290048015610a6d5780601f10610a4257610100808354040283529160200191610a6d565b820191906000526020600020905b815481529060010190602001808311610a5057829003601f168201915b505050505081565b60086020528060005260406000206000915090505481565b6000600254431015610a9e57600080fd5b600354431115610aad57600080fd5b600560009054906101000a900460ff1615610ac757600080fd5b6000809054906101000a900473ffffffffffffffffffffffffffffffffffffffff1673ffffffffffffffffffffffffffffffffffffffff163373ffffffffffffffffffffffffffffffffffffffff161415610b2157600080fd5b6000341415610b2f57600080fd5b600034600860003373ffffffffffffffffffffffffffffffffffffffff1673ffffffffffffffffffffffffffffffffffffffff1681526020019081526020016000205401905060065481111515610b8557600080fd5b600060086000600760009054906101000a900473ffffffffffffffffffffffffffffffffffffffff1673ffffffffffffffffffffffffffffffffffffffff1673ffffffffffffffffffffffffffffffffffffffff16815260200190815260200160002054905081600860003373ffffffffffffffffffffffffffffffffffffffff1673ffffffffffffffffffffffffffffffffffffffff168152602001908152602001600020819055508082111515610c5157610c46600154830182610de4565b600681905550610d02565b600760009054906101000a900473ffffffffffffffffffffffffffffffffffffffff1673ffffffffffffffffffffffffffffffffffffffff163373ffffffffffffffffffffffffffffffffffffffff16141515610cfe5733600760006101000a81548173ffffffffffffffffffffffffffffffffffffffff021916908373ffffffffffffffffffffffffffffffffffffffff160217905550610cf7826001548301610de4565b6006819055505b8190505b7ff152f4ff5e488c55370a2d53925a55055228ebd8ec95bd0251bbb299e48786b03383600760009054906101000a900473ffffffffffffffffffffffffffffffffffffffff1684600654604051808673ffffffffffffffffffffffffffffffffffffffff1673ffffffffffffffffffffffffffffffffffffffff1681526020018581526020018473ffffffffffffffffffffffffffffffffffffffff1673ffffffffffffffffffffffffffffffffffffffff1681526020018381526020018281526020019550505050505060405180910390a160019250505090565b60065481565b600081831015610df657829050610dfa565b8190505b9291505056fea165627a7a7230582050ec44259920f9fac4d8a3c65e12d85efd4f0f68d9f6711c720bbf28c8b7000d0029a165627a7a723058201581e18e0ee927a124358db1d622e9afc5a73ba7a9a03868378bcfd9a5b529dc0029",
  "source": "pragma solidity ^0.5.2;\r\n\r\nimport { Auction } from './Auction.sol';\r\n\r\ncontract AuctionFactory {\r\n    address[] public auctions;\r\n    mapping(address=>Auction) auctionList;\r\n    event AuctionCreated(address auctionContract, address owner, uint numAuctions, address[] allAuctions);\r\n    event getAddress(address);\r\n    event getBlockNumber(uint);\r\n    constructor()public {\r\n    }\r\n\r\n    function createAuction(uint bidIncrement, uint startBlock, uint endBlock, string memory ipfsHash) public returns(address) {\r\n        Auction newAuction = new Auction(msg.sender, bidIncrement, block.number+1, endBlock, ipfsHash);\r\n        //auctions.push(address(newAuction));\r\n        //auctionList[address(newAuction)]=newAuction;\r\n        //emit AuctionCreated(address(newAuction), msg.sender, auctions.length, auctions);\r\n        emit getAddress(address(newAuction));\r\n        return (address(newAuction));\r\n    }\r\n\r\n    function allAuctions() view public returns (address[] memory) {\r\n        return auctions;\r\n    }\r\n}",
  "sourcePath": "C:/Users/node/Desktop/pjpj/code/contracts/AuctionFactory.sol",
  "compiler": {
    "name": "solc",
    "version": "0.5.2+commit.1df8f40c.Emscripten.clang"
  },
  "schemaVersion": "3.0.6",
  "updatedAt": "2019-04-17T11:03:32.519Z",
  "devdoc": {
    "methods": {}
  },
  "userdoc": {
    "methods": {}
  }
}