{
  "contractName": "Game",
  "abi": [
    {
      "anonymous": false,
      "inputs": [
        {
          "indexed": false,
          "name": "sender",
          "type": "address"
        },
        {
          "indexed": false,
          "name": "who",
          "type": "string"
        }
      ],
      "name": "Winner",
      "type": "event"
    },
    {
      "constant": false,
      "inputs": [
        {
          "name": "winner",
          "type": "string"
        }
      ],
      "name": "win",
      "outputs": [],
      "payable": false,
      "stateMutability": "nonpayable",
      "type": "function"
    },
    {
      "constant": false,
      "inputs": [
        {
          "name": "o",
          "type": "address"
        }
      ],
      "name": "setOracle",
      "outputs": [],
      "payable": false,
      "stateMutability": "nonpayable",
      "type": "function"
    },
    {
      "constant": true,
      "inputs": [],
      "name": "getOracle",
      "outputs": [
        {
          "name": "oracle_addr",
          "type": "address"
        }
      ],
      "payable": false,
      "stateMutability": "view",
      "type": "function"
    },
    {
      "constant": false,
      "inputs": [
        {
          "name": "winner",
          "type": "string"
        }
      ],
      "name": "oracleCallBack",
      "outputs": [],
      "payable": false,
      "stateMutability": "nonpayable",
      "type": "function"
    }
  ],
  "bytecode": "0x608060405234801561001057600080fd5b50610596806100206000396000f3fe608060405234801561001057600080fd5b5060043610610069576000357c0100000000000000000000000000000000000000000000000000000000900480633f4bf35c1461006e5780637adbf97314610129578063833b1fce1461016d578063d472f19a146101b7575b600080fd5b6101276004803603602081101561008457600080fd5b81019080803590602001906401000000008111156100a157600080fd5b8201836020820111156100b357600080fd5b803590602001918460018302840111640100000000831117156100d557600080fd5b91908080601f016020809104026020016040519081016040528093929190818152602001838380828437600081840152601f19601f820116905080830192505050505050509192919290505050610272565b005b61016b6004803603602081101561013f57600080fd5b81019080803573ffffffffffffffffffffffffffffffffffffffff169060200190929190505050610384565b005b6101756103c8565b604051808273ffffffffffffffffffffffffffffffffffffffff1673ffffffffffffffffffffffffffffffffffffffff16815260200191505060405180910390f35b610270600480360360208110156101cd57600080fd5b81019080803590602001906401000000008111156101ea57600080fd5b8201836020820111156101fc57600080fd5b8035906020019184600183028401116401000000008311171561021e57600080fd5b91908080601f016020809104026020016040519081016040528093929190818152602001838380828437600081840152601f19601f8201169050808301925050505050505091929192905050506103f2565b005b60008190806001815401808255809150509060018203906000526020600020016000909192909190915090805190602001906102af9291906104c5565b50507f45edd59c4f5dea5f690cd524f1a6ea9cba17b09235c1bfaa2cea0d80bac5daba3382604051808373ffffffffffffffffffffffffffffffffffffffff1673ffffffffffffffffffffffffffffffffffffffff16815260200180602001828103825283818151815260200191508051906020019080838360005b8381101561034657808201518184015260208101905061032b565b50505050905090810190601f1680156103735780820380516001836020036101000a031916815260200191505b50935050505060405180910390a150565b80600160006101000a81548173ffffffffffffffffffffffffffffffffffffffff021916908373ffffffffffffffffffffffffffffffffffffffff16021790555050565b6000600160009054906101000a900473ffffffffffffffffffffffffffffffffffffffff16905090565b7f45edd59c4f5dea5f690cd524f1a6ea9cba17b09235c1bfaa2cea0d80bac5daba3082604051808373ffffffffffffffffffffffffffffffffffffffff1673ffffffffffffffffffffffffffffffffffffffff16815260200180602001828103825283818151815260200191508051906020019080838360005b8381101561048757808201518184015260208101905061046c565b50505050905090810190601f1680156104b45780820380516001836020036101000a031916815260200191505b50935050505060405180910390a150565b828054600181600116156101000203166002900490600052602060002090601f016020900481019282601f1061050657805160ff1916838001178555610534565b82800160010185558215610534579182015b82811115610533578251825591602001919060010190610518565b5b5090506105419190610545565b5090565b61056791905b8082111561056357600081600090555060010161054b565b5090565b9056fea165627a7a72305820d041a58c701f65ed1a818a91e0b1ab726e1e0dba3da225e1f6ad26da37eb3de20029",
  "source": "pragma solidity ^0.5.2;\r\nimport \"./myOracle.sol\";\r\n\r\ncontract Game {    \r\n    string[] winners;   \r\n    address oracle_address; \r\n    event Winner(address sender, string who);    \r\n    function win(string memory winner) public {        \r\n        winners.push(winner);        \r\n        emit Winner(msg.sender, winner);    \r\n    }\r\n\r\n    function setOracle(address o) public{\r\n        oracle_address = o;\r\n    }\r\n\r\n    function getOracle() public view returns (address oracle_addr){\r\n        return oracle_address;\r\n    }\r\n\r\n    function oracleCallBack(string memory winner) public{\r\n        emit Winner(address(this), winner);\r\n    }\r\n\r\n}\r\n",
  "sourcePath": "C:/Users/node/Desktop/pjpj/code/contracts/Game.sol",
  "compiler": {
    "name": "solc",
    "version": "0.5.2+commit.1df8f40c.Emscripten.clang"
  },
  "schemaVersion": "3.0.6",
  "updatedAt": "2019-04-17T11:03:31.583Z",
  "devdoc": {
    "methods": {}
  },
  "userdoc": {
    "methods": {}
  }
}