{
  "contractName": "Auction",
  "abi": [
    {
      "constant": true,
      "inputs": [],
      "name": "canceled",
      "outputs": [
        {
          "name": "",
          "type": "bool"
        }
      ],
      "payable": false,
      "stateMutability": "view",
      "type": "function"
    },
    {
      "constant": true,
      "inputs": [],
      "name": "BidNum",
      "outputs": [
        {
          "name": "",
          "type": "uint256"
        }
      ],
      "payable": false,
      "stateMutability": "view",
      "type": "function"
    },
    {
      "constant": true,
      "inputs": [],
      "name": "endBid",
      "outputs": [
        {
          "name": "",
          "type": "uint256"
        }
      ],
      "payable": false,
      "stateMutability": "view",
      "type": "function"
    },
    {
      "constant": true,
      "inputs": [],
      "name": "owner",
      "outputs": [
        {
          "name": "",
          "type": "address"
        }
      ],
      "payable": false,
      "stateMutability": "view",
      "type": "function"
    },
    {
      "constant": true,
      "inputs": [],
      "name": "highestBidder",
      "outputs": [
        {
          "name": "",
          "type": "address"
        }
      ],
      "payable": false,
      "stateMutability": "view",
      "type": "function"
    },
    {
      "constant": true,
      "inputs": [],
      "name": "bidIncrement",
      "outputs": [
        {
          "name": "",
          "type": "uint256"
        }
      ],
      "payable": false,
      "stateMutability": "view",
      "type": "function"
    },
    {
      "constant": true,
      "inputs": [
        {
          "name": "",
          "type": "address"
        }
      ],
      "name": "fundsByBidder",
      "outputs": [
        {
          "name": "",
          "type": "uint256"
        }
      ],
      "payable": false,
      "stateMutability": "view",
      "type": "function"
    },
    {
      "inputs": [
        {
          "name": "_owner",
          "type": "address"
        },
        {
          "name": "_endBid",
          "type": "uint256"
        },
        {
          "name": "_oracle",
          "type": "address"
        }
      ],
      "payable": false,
      "stateMutability": "nonpayable",
      "type": "constructor"
    },
    {
      "anonymous": false,
      "inputs": [
        {
          "indexed": false,
          "name": "",
          "type": "address"
        },
        {
          "indexed": false,
          "name": "",
          "type": "uint256"
        },
        {
          "indexed": false,
          "name": "",
          "type": "uint256"
        },
        {
          "indexed": false,
          "name": "",
          "type": "string"
        },
        {
          "indexed": false,
          "name": "",
          "type": "address"
        }
      ],
      "name": "track",
      "type": "event"
    },
    {
      "anonymous": false,
      "inputs": [
        {
          "indexed": false,
          "name": "bidder",
          "type": "address"
        },
        {
          "indexed": false,
          "name": "bid",
          "type": "uint256"
        },
        {
          "indexed": false,
          "name": "highestBidder",
          "type": "address"
        },
        {
          "indexed": false,
          "name": "highestBid",
          "type": "uint256"
        }
      ],
      "name": "LogBid",
      "type": "event"
    },
    {
      "anonymous": false,
      "inputs": [
        {
          "indexed": false,
          "name": "withdrawer",
          "type": "address"
        },
        {
          "indexed": false,
          "name": "withdrawalAccount",
          "type": "address"
        },
        {
          "indexed": false,
          "name": "amount",
          "type": "uint256"
        }
      ],
      "name": "LogWithdrawal",
      "type": "event"
    },
    {
      "anonymous": false,
      "inputs": [],
      "name": "LogCanceled",
      "type": "event"
    },
    {
      "anonymous": false,
      "inputs": [
        {
          "indexed": false,
          "name": "owner",
          "type": "address"
        },
        {
          "indexed": false,
          "name": "bidNum",
          "type": "uint256"
        },
        {
          "indexed": false,
          "name": "endBid",
          "type": "uint256"
        },
        {
          "indexed": false,
          "name": "highestBidder",
          "type": "address"
        },
        {
          "indexed": false,
          "name": "highestBid",
          "type": "uint256"
        },
        {
          "indexed": false,
          "name": "state",
          "type": "uint256"
        }
      ],
      "name": "allInfo",
      "type": "event"
    },
    {
      "anonymous": false,
      "inputs": [
        {
          "indexed": false,
          "name": "cnt",
          "type": "uint256"
        }
      ],
      "name": "AuctionCnt",
      "type": "event"
    },
    {
      "anonymous": false,
      "inputs": [
        {
          "indexed": false,
          "name": "description",
          "type": "string"
        }
      ],
      "name": "newMyOracleQuery",
      "type": "event"
    },
    {
      "anonymous": false,
      "inputs": [
        {
          "indexed": false,
          "name": "result",
          "type": "string"
        }
      ],
      "name": "Result",
      "type": "event"
    },
    {
      "anonymous": false,
      "inputs": [
        {
          "indexed": false,
          "name": "",
          "type": "address"
        }
      ],
      "name": "isDone",
      "type": "event"
    },
    {
      "anonymous": false,
      "inputs": [
        {
          "indexed": false,
          "name": "",
          "type": "address"
        }
      ],
      "name": "settingResolver",
      "type": "event"
    },
    {
      "anonymous": false,
      "inputs": [
        {
          "indexed": false,
          "name": "",
          "type": "address"
        }
      ],
      "name": "logResolver",
      "type": "event"
    },
    {
      "constant": true,
      "inputs": [],
      "name": "getHighestBid",
      "outputs": [
        {
          "name": "",
          "type": "uint256"
        }
      ],
      "payable": false,
      "stateMutability": "view",
      "type": "function"
    },
    {
      "constant": false,
      "inputs": [],
      "name": "placeBid",
      "outputs": [
        {
          "name": "success",
          "type": "bool"
        }
      ],
      "payable": true,
      "stateMutability": "payable",
      "type": "function"
    },
    {
      "constant": false,
      "inputs": [],
      "name": "cancelAuction",
      "outputs": [
        {
          "name": "success",
          "type": "bool"
        }
      ],
      "payable": false,
      "stateMutability": "nonpayable",
      "type": "function"
    },
    {
      "constant": false,
      "inputs": [],
      "name": "withdraw",
      "outputs": [
        {
          "name": "success",
          "type": "bool"
        }
      ],
      "payable": false,
      "stateMutability": "nonpayable",
      "type": "function"
    },
    {
      "constant": false,
      "inputs": [],
      "name": "getIsEnd",
      "outputs": [
        {
          "name": "",
          "type": "bool"
        }
      ],
      "payable": false,
      "stateMutability": "nonpayable",
      "type": "function"
    }
  ],
  "bytecode": "0x60806040526000600355600060045534801561001a57600080fd5b506040516060806117358339810180604052606081101561003a57600080fd5b81019080805190602001909291908051906020019092919080519060200190929190505050826000806101000a81548173ffffffffffffffffffffffffffffffffffffffff021916908373ffffffffffffffffffffffffffffffffffffffff1602179055508160028190555080600860016101000a81548173ffffffffffffffffffffffffffffffffffffffff021916908373ffffffffffffffffffffffffffffffffffffffff1602179055507fdd43cf5f276d0a2edb852a6d25b452872549a2a11c9a80ca40d5f074a4f1d8516000809054906101000a900473ffffffffffffffffffffffffffffffffffffffff16600354600254600560019054906101000a900473ffffffffffffffffffffffffffffffffffffffff16600654600454604051808773ffffffffffffffffffffffffffffffffffffffff1673ffffffffffffffffffffffffffffffffffffffff1681526020018681526020018581526020018473ffffffffffffffffffffffffffffffffffffffff1673ffffffffffffffffffffffffffffffffffffffff168152602001838152602001828152602001965050505050505060405180910390a150505061153a806101fb6000396000f3fe6080604052600436106100c4576000357c0100000000000000000000000000000000000000000000000000000000900480638da5cb5b116100815780638da5cb5b146101d75780638fa8b7901461022e57806391f901571461025d578063b3cc167a146102b4578063ce10cf80146102df578063ecfc7ecc14610344576100c4565b80633ccfd60b146100c95780633f9942ff146100f8578063494e2b06146101275780634979440a146101565780635b5a62d9146101815780638bae720b146101ac575b600080fd5b3480156100d557600080fd5b506100de610366565b604051808215151515815260200191505060405180910390f35b34801561010457600080fd5b5061010d610a92565b604051808215151515815260200191505060405180910390f35b34801561013357600080fd5b5061013c610aa5565b604051808215151515815260200191505060405180910390f35b34801561016257600080fd5b5061016b610adc565b6040518082815260200191505060405180910390f35b34801561018d57600080fd5b50610196610b45565b6040518082815260200191505060405180910390f35b3480156101b857600080fd5b506101c1610b4b565b6040518082815260200191505060405180910390f35b3480156101e357600080fd5b506101ec610b51565b604051808273ffffffffffffffffffffffffffffffffffffffff1673ffffffffffffffffffffffffffffffffffffffff16815260200191505060405180910390f35b34801561023a57600080fd5b50610243610b76565b604051808215151515815260200191505060405180910390f35b34801561026957600080fd5b50610272610eb2565b604051808273ffffffffffffffffffffffffffffffffffffffff1673ffffffffffffffffffffffffffffffffffffffff16815260200191505060405180910390f35b3480156102c057600080fd5b506102c9610ed8565b6040518082815260200191505060405180910390f35b3480156102eb57600080fd5b5061032e6004803603602081101561030257600080fd5b81019080803573ffffffffffffffffffffffffffffffffffffffff169060200190929190505050610ede565b6040518082815260200191505060405180910390f35b61034c610ef6565b604051808215151515815260200191505060405180910390f35b60006002546003541080156103885750600560009054906101000a900460ff16155b1561039257600080fd5b600560019054906101000a900473ffffffffffffffffffffffffffffffffffffffff1673ffffffffffffffffffffffffffffffffffffffff163373ffffffffffffffffffffffffffffffffffffffff1614156103ed57600080fd5b3373ffffffffffffffffffffffffffffffffffffffff166000809054906101000a900473ffffffffffffffffffffffffffffffffffffffff1673ffffffffffffffffffffffffffffffffffffffff161415801561048957506000600760003373ffffffffffffffffffffffffffffffffffffffff1673ffffffffffffffffffffffffffffffffffffffff16815260200190815260200160002054145b8061054e57503373ffffffffffffffffffffffffffffffffffffffff166000809054906101000a900473ffffffffffffffffffffffffffffffffffffffff1673ffffffffffffffffffffffffffffffffffffffff1614801561054d5750600060076000600560019054906101000a900473ffffffffffffffffffffffffffffffffffffffff1673ffffffffffffffffffffffffffffffffffffffff1673ffffffffffffffffffffffffffffffffffffffff1681526020019081526020016000205414155b5b1561055857600080fd5b600080600560009054906101000a900460ff16156105ba57339150600760008373ffffffffffffffffffffffffffffffffffffffff1673ffffffffffffffffffffffffffffffffffffffff1681526020019081526020016000205490506106ff565b6000809054906101000a900473ffffffffffffffffffffffffffffffffffffffff1673ffffffffffffffffffffffffffffffffffffffff163373ffffffffffffffffffffffffffffffffffffffff1614156106b857600560019054906101000a900473ffffffffffffffffffffffffffffffffffffffff16915060076000600560019054906101000a900473ffffffffffffffffffffffffffffffffffffffff1673ffffffffffffffffffffffffffffffffffffffff1673ffffffffffffffffffffffffffffffffffffffff1681526020019081526020016000205490506001600860006101000a81548160ff0219169083151502179055506106fe565b339150600760008373ffffffffffffffffffffffffffffffffffffffff1673ffffffffffffffffffffffffffffffffffffffff1681526020019081526020016000205490505b5b3373ffffffffffffffffffffffffffffffffffffffff166108fc829081150290604051600060405180830381858888f1935050505061073d57600080fd5b7fdd43cf5f276d0a2edb852a6d25b452872549a2a11c9a80ca40d5f074a4f1d8516000809054906101000a900473ffffffffffffffffffffffffffffffffffffffff16600354600254600560019054906101000a900473ffffffffffffffffffffffffffffffffffffffff16600654600454604051808773ffffffffffffffffffffffffffffffffffffffff1673ffffffffffffffffffffffffffffffffffffffff1681526020018681526020018581526020018473ffffffffffffffffffffffffffffffffffffffff1673ffffffffffffffffffffffffffffffffffffffff168152602001838152602001828152602001965050505050505060405180910390a17f0ec497a8ae5b1ba29c60470ef651def995fac3deebbdcc56c47a4e5f51a4c2bd338383604051808473ffffffffffffffffffffffffffffffffffffffff1673ffffffffffffffffffffffffffffffffffffffff1681526020018373ffffffffffffffffffffffffffffffffffffffff1673ffffffffffffffffffffffffffffffffffffffff168152602001828152602001935050505060405180910390a16000600760008473ffffffffffffffffffffffffffffffffffffffff1673ffffffffffffffffffffffffffffffffffffffff16815260200190815260200160002081905550600860019054906101000a900473ffffffffffffffffffffffffffffffffffffffff1673ffffffffffffffffffffffffffffffffffffffff166382a4a5a983306040518363ffffffff167c0100000000000000000000000000000000000000000000000000000000028152600401808373ffffffffffffffffffffffffffffffffffffffff1673ffffffffffffffffffffffffffffffffffffffff168152602001806020018373ffffffffffffffffffffffffffffffffffffffff1673ffffffffffffffffffffffffffffffffffffffff168152602001828103825260108152602001807f57697468647261776564204d6f6e6579000000000000000000000000000000008152506020019350505050602060405180830381600087803b158015610a4d57600080fd5b505af1158015610a61573d6000803e3d6000fd5b505050506040513d6020811015610a7757600080fd5b81019080805190602001909291905050505060019250505090565b600560009054906101000a900460ff1681565b6000600560009054906101000a900460ff1680610ac6575060025460035410155b15610ad45760019050610ad9565b600090505b90565b600060076000600560019054906101000a900473ffffffffffffffffffffffffffffffffffffffff1673ffffffffffffffffffffffffffffffffffffffff1673ffffffffffffffffffffffffffffffffffffffff16815260200190815260200160002054905090565b60035481565b60025481565b6000809054906101000a900473ffffffffffffffffffffffffffffffffffffffff1681565b60008060009054906101000a900473ffffffffffffffffffffffffffffffffffffffff1673ffffffffffffffffffffffffffffffffffffffff163373ffffffffffffffffffffffffffffffffffffffff1614610bd157600080fd5b6002546003541115610be257600080fd5b600560009054906101000a900460ff1615610bfc57600080fd5b6001600560006101000a81548160ff021916908315150217905550600860019054906101000a900473ffffffffffffffffffffffffffffffffffffffff1673ffffffffffffffffffffffffffffffffffffffff166382a4a5a933306040518363ffffffff167c0100000000000000000000000000000000000000000000000000000000028152600401808373ffffffffffffffffffffffffffffffffffffffff1673ffffffffffffffffffffffffffffffffffffffff168152602001806020018373ffffffffffffffffffffffffffffffffffffffff1673ffffffffffffffffffffffffffffffffffffffff168152602001828103825260138152602001807f43616e63656c656420616e2041756374696f6e000000000000000000000000008152506020019350505050602060405180830381600087803b158015610d4157600080fd5b505af1158015610d55573d6000803e3d6000fd5b505050506040513d6020811015610d6b57600080fd5b8101908080519060200190929190505050507f462b6ca7f632601af1295aeb320851f50e8e630a309173f23535845ea4bfb3b960405160405180910390a17fdd43cf5f276d0a2edb852a6d25b452872549a2a11c9a80ca40d5f074a4f1d8516000809054906101000a900473ffffffffffffffffffffffffffffffffffffffff16600354600254600560019054906101000a900473ffffffffffffffffffffffffffffffffffffffff16600654600454604051808773ffffffffffffffffffffffffffffffffffffffff1673ffffffffffffffffffffffffffffffffffffffff1681526020018681526020018581526020018473ffffffffffffffffffffffffffffffffffffffff1673ffffffffffffffffffffffffffffffffffffffff168152602001838152602001828152602001965050505050505060405180910390a16001905090565b600560019054906101000a900473ffffffffffffffffffffffffffffffffffffffff1681565b60015481565b60076020528060005260406000206000915090505481565b60006002546003541115610f0957600080fd5b600560009054906101000a900460ff1615610f2357600080fd5b6000809054906101000a900473ffffffffffffffffffffffffffffffffffffffff1673ffffffffffffffffffffffffffffffffffffffff163373ffffffffffffffffffffffffffffffffffffffff161415610f7d57600080fd5b3460076000600560019054906101000a900473ffffffffffffffffffffffffffffffffffffffff1673ffffffffffffffffffffffffffffffffffffffff1673ffffffffffffffffffffffffffffffffffffffff16815260200190815260200160002054013373ffffffffffffffffffffffffffffffffffffffff1631101561100457600080fd5b60076000600560019054906101000a900473ffffffffffffffffffffffffffffffffffffffff1673ffffffffffffffffffffffffffffffffffffffff1673ffffffffffffffffffffffffffffffffffffffff16815260200190815260200160002054341161107157600080fd5b33600560016101000a81548173ffffffffffffffffffffffffffffffffffffffff021916908373ffffffffffffffffffffffffffffffffffffffff1602179055503460068190555060065460076000600560019054906101000a900473ffffffffffffffffffffffffffffffffffffffff1673ffffffffffffffffffffffffffffffffffffffff1673ffffffffffffffffffffffffffffffffffffffff16815260200190815260200160002060008282540192505081905550600860019054906101000a900473ffffffffffffffffffffffffffffffffffffffff1673ffffffffffffffffffffffffffffffffffffffff166382a4a5a933306040518363ffffffff167c0100000000000000000000000000000000000000000000000000000000028152600401808373ffffffffffffffffffffffffffffffffffffffff1673ffffffffffffffffffffffffffffffffffffffff168152602001806020018373ffffffffffffffffffffffffffffffffffffffff1673ffffffffffffffffffffffffffffffffffffffff1681526020018281038252600d8152602001807f506c6163656420612042696421000000000000000000000000000000000000008152506020019350505050602060405180830381600087803b15801561125457600080fd5b505af1158015611268573d6000803e3d6000fd5b505050506040513d602081101561127e57600080fd5b8101908080519060200190929190505050506003600081548092919060010191905055507f49e60d8d833f1250f6ede154509b047fe77c1eae57655e8176675b5f91af7b0a3334600560019054906101000a900473ffffffffffffffffffffffffffffffffffffffff1660076000600560019054906101000a900473ffffffffffffffffffffffffffffffffffffffff1673ffffffffffffffffffffffffffffffffffffffff1673ffffffffffffffffffffffffffffffffffffffff16815260200190815260200160002054604051808573ffffffffffffffffffffffffffffffffffffffff1673ffffffffffffffffffffffffffffffffffffffff1681526020018481526020018373ffffffffffffffffffffffffffffffffffffffff1673ffffffffffffffffffffffffffffffffffffffff16815260200182815260200194505050505060405180910390a17fef9e2d8e435f0509e385fd41e94559252a2981041dd8797ca42aaef7d729ec6c6003546040518082815260200191505060405180910390a17fdd43cf5f276d0a2edb852a6d25b452872549a2a11c9a80ca40d5f074a4f1d8516000809054906101000a900473ffffffffffffffffffffffffffffffffffffffff16600354600254600560019054906101000a900473ffffffffffffffffffffffffffffffffffffffff16600654600454604051808773ffffffffffffffffffffffffffffffffffffffff1673ffffffffffffffffffffffffffffffffffffffff1681526020018681526020018581526020018473ffffffffffffffffffffffffffffffffffffffff1673ffffffffffffffffffffffffffffffffffffffff168152602001838152602001828152602001965050505050505060405180910390a1600190509056fea165627a7a723058202e65fc178ef0ee15a7e7afc79ba3f38e7d542bbc05f39c1a27494fc35d4468c60029",
  "source": "pragma solidity ^0.5.7;\r\n\r\nimport {Oracle} from './Oracle.sol';\r\n\r\ncontract Auction{\r\n    // static\r\n    address public owner;\r\n    uint public bidIncrement;\r\n    uint public endBid;\r\n    uint public BidNum=0;\r\n    \r\n    // state\r\n    uint state=0;\r\n    bool public canceled;\r\n    address public highestBidder;\r\n    uint highestBid;\r\n    mapping(address => uint256) public fundsByBidder;\r\n    \r\n    bool ownerHasWithdrawn;\r\n    event track(address,uint, uint, string, address);\r\n    event LogBid(address bidder, uint bid, address highestBidder, uint highestBid);\r\n    event LogWithdrawal(address withdrawer, address withdrawalAccount, uint amount);\r\n    event LogCanceled();\r\n    event allInfo(address owner, uint bidNum, uint endBid,address highestBidder, uint highestBid, uint state);\r\n    //newadd\r\n    event AuctionCnt(uint cnt);\r\n    \r\n    // 輔助的event，沒有也不影響功能\r\n    event newMyOracleQuery(string description);\r\n    event Result(string result);\r\n    event isDone(address);\r\n\r\n    event settingResolver(address);\r\n\r\n    Oracle oracle;\r\n    event logResolver(address);\r\n\r\n    constructor (address _owner, uint _endBid, address _oracle) public{\r\n        owner = _owner;\r\n        endBid = _endBid;\r\n        oracle = Oracle(_oracle);\r\n        emit allInfo(owner, BidNum, endBid, highestBidder, highestBid, state);\r\n    }\r\n\r\n\r\n    function getHighestBid()public\r\n        view\r\n        returns (uint)\r\n    {\r\n        return fundsByBidder[highestBidder];\r\n    }\r\n\r\n    function placeBid()public\r\n        payable\r\n        onlyBeforeEnd\r\n        onlyNotCanceled\r\n        onlyNotOwner\r\n        enoughAmount\r\n        largerThanBefore\r\n        returns (bool success) \r\n    { \r\n        highestBidder = msg.sender;\r\n        highestBid=msg.value;\r\n        fundsByBidder[highestBidder]+=highestBid;\r\n    \r\n        oracle.operationCallback(msg.sender, \"Placed a Bid!\", address(this));\r\n        BidNum++;\r\n        emit LogBid(msg.sender, msg.value, highestBidder, fundsByBidder[highestBidder]);\r\n        emit AuctionCnt(BidNum);\r\n        emit allInfo(owner, BidNum, endBid, highestBidder, highestBid, state);\r\n\r\n        return true;\r\n        \r\n    }\r\n\r\n\r\n    function cancelAuction()\r\n        onlyOwner\r\n        onlyBeforeEnd\r\n        onlyNotCanceled\r\n        public\r\n        returns (bool success)\r\n    {\r\n        canceled = true;\r\n        oracle.operationCallback(msg.sender, \"Canceled an Auction\", address(this));\r\n        emit LogCanceled();\r\n        emit allInfo(owner, BidNum, endBid, highestBidder, highestBid, state);\r\n\r\n        return true;\r\n    }\r\n\r\n    function withdraw()\r\n        onlyEndedOrCanceled\r\n        notHighestBidder\r\n        notWithdrawYet\r\n        public\r\n        returns (bool success)\r\n    {\r\n        //this function is runned by frontend when it has triggered as auction ended or canceled by a user\r\n        address withdrawalAccount;\r\n        uint withdrawalAmount;\r\n\r\n        if (canceled) {\r\n            //withdraw the money if it is canceled\r\n            withdrawalAccount = msg.sender;\r\n            withdrawalAmount = fundsByBidder[withdrawalAccount];\r\n        } else {\r\n            if (msg.sender == owner) {\r\n                //only owner can withdraw the highestBidder money\r\n                withdrawalAccount = highestBidder;\r\n                withdrawalAmount = fundsByBidder[highestBidder];\r\n                ownerHasWithdrawn = true;\r\n            } else {\r\n                //others except the highest bidder can get the money\r\n                withdrawalAccount = msg.sender;\r\n                withdrawalAmount = fundsByBidder[withdrawalAccount];\r\n            }\r\n        }\r\n\r\n        if (!msg.sender.send(withdrawalAmount)) revert();\r\n        emit allInfo(owner, BidNum, endBid, highestBidder, highestBid, state);\r\n        emit LogWithdrawal(msg.sender, withdrawalAccount, withdrawalAmount);\r\n        fundsByBidder[withdrawalAccount] = 0;   //if it has refunded, reset the money as 0 so that it won't compute this function again\r\n        oracle.operationCallback(withdrawalAccount, \"Withdrawed Money\", address(this));\r\n        return true;\r\n    }\r\n\r\n    modifier onlyOwner {\r\n        if (msg.sender != owner) revert();\r\n        _;\r\n    }\r\n\r\n    modifier onlyNotOwner {\r\n        if (msg.sender == owner) revert();\r\n        _;\r\n    }\r\n\r\n    modifier enoughAmount{\r\n        if(msg.sender.balance<fundsByBidder[highestBidder] + msg.value) revert(); //check if the user has sufficient amount to bid\r\n        _;\r\n    }\r\n\r\n    modifier largerThanBefore{\r\n        if(msg.value<=fundsByBidder[highestBidder])revert();\r\n        _;\r\n    }\r\n\r\n    modifier onlyBeforeEnd {\r\n        if (BidNum > endBid) revert();\r\n        _;\r\n    }\r\n\r\n    modifier onlyNotCanceled {\r\n        if (canceled) revert();\r\n        _;\r\n    }\r\n\r\n    modifier onlyEndedOrCanceled {\r\n        if (BidNum < endBid && !canceled) revert();\r\n        _;\r\n    }\r\n    \r\n    modifier notHighestBidder{\r\n        if(msg.sender==highestBidder) revert();\r\n        _;\r\n    }\r\n    \r\n    modifier notWithdrawYet{    //check if the user is withdrawn or not\r\n        if((owner!=msg.sender&&fundsByBidder[msg.sender]==0)||(owner==msg.sender&&fundsByBidder[highestBidder]!=0)) revert();\r\n        _;\r\n    }\r\n    \r\n    function getIsEnd()public returns (bool){   //determine if it is ended\r\n        if(canceled||BidNum>=endBid){\r\n            return true;\r\n        }\r\n        return false;\r\n    }\r\n}",
  "sourcePath": "C:\\Users\\node\\Desktop\\pjpj\\code\\contracts\\Auction.sol",
  "compiler": {
    "name": "solc",
    "version": "0.5.7+commit.6da8b019.Emscripten.clang"
  },
  "schemaVersion": "3.0.6",
  "updatedAt": "2019-04-25T13:22:07.308Z",
  "devdoc": {
    "methods": {}
  },
  "userdoc": {
    "methods": {}
  }
}