{
  "contractName": "Auction",
  "abi": [
    {
      "constant": true,
      "inputs": [],
      "name": "endBlock",
      "outputs": [
        {
          "name": "",
          "type": "uint256"
        }
      ],
      "payable": false,
      "stateMutability": "view",
      "type": "function"
    },
    {
      "constant": true,
      "inputs": [],
      "name": "canceled",
      "outputs": [
        {
          "name": "",
          "type": "bool"
        }
      ],
      "payable": false,
      "stateMutability": "view",
      "type": "function"
    },
    {
      "constant": true,
      "inputs": [],
      "name": "startBlock",
      "outputs": [
        {
          "name": "",
          "type": "uint256"
        }
      ],
      "payable": false,
      "stateMutability": "view",
      "type": "function"
    },
    {
      "constant": true,
      "inputs": [],
      "name": "owner",
      "outputs": [
        {
          "name": "",
          "type": "address"
        }
      ],
      "payable": false,
      "stateMutability": "view",
      "type": "function"
    },
    {
      "constant": true,
      "inputs": [],
      "name": "highestBidder",
      "outputs": [
        {
          "name": "",
          "type": "address"
        }
      ],
      "payable": false,
      "stateMutability": "view",
      "type": "function"
    },
    {
      "constant": true,
      "inputs": [],
      "name": "bidIncrement",
      "outputs": [
        {
          "name": "",
          "type": "uint256"
        }
      ],
      "payable": false,
      "stateMutability": "view",
      "type": "function"
    },
    {
      "constant": true,
      "inputs": [],
      "name": "ipfsHash",
      "outputs": [
        {
          "name": "",
          "type": "string"
        }
      ],
      "payable": false,
      "stateMutability": "view",
      "type": "function"
    },
    {
      "constant": true,
      "inputs": [
        {
          "name": "",
          "type": "address"
        }
      ],
      "name": "fundsByBidder",
      "outputs": [
        {
          "name": "",
          "type": "uint256"
        }
      ],
      "payable": false,
      "stateMutability": "view",
      "type": "function"
    },
    {
      "constant": true,
      "inputs": [],
      "name": "highestBindingBid",
      "outputs": [
        {
          "name": "",
          "type": "uint256"
        }
      ],
      "payable": false,
      "stateMutability": "view",
      "type": "function"
    },
    {
      "inputs": [
        {
          "name": "_owner",
          "type": "address"
        },
        {
          "name": "_bidIncrement",
          "type": "uint256"
        },
        {
          "name": "_endBlock",
          "type": "uint256"
        },
        {
          "name": "_ipfsHash",
          "type": "string"
        }
      ],
      "payable": false,
      "stateMutability": "nonpayable",
      "type": "constructor"
    },
    {
      "anonymous": false,
      "inputs": [
        {
          "indexed": false,
          "name": "bidder",
          "type": "address"
        },
        {
          "indexed": false,
          "name": "bid",
          "type": "uint256"
        },
        {
          "indexed": false,
          "name": "highestBidder",
          "type": "address"
        },
        {
          "indexed": false,
          "name": "highestBid",
          "type": "uint256"
        },
        {
          "indexed": false,
          "name": "highestBindingBid",
          "type": "uint256"
        }
      ],
      "name": "LogBid",
      "type": "event"
    },
    {
      "anonymous": false,
      "inputs": [
        {
          "indexed": false,
          "name": "withdrawer",
          "type": "address"
        },
        {
          "indexed": false,
          "name": "withdrawalAccount",
          "type": "address"
        },
        {
          "indexed": false,
          "name": "amount",
          "type": "uint256"
        }
      ],
      "name": "LogWithdrawal",
      "type": "event"
    },
    {
      "anonymous": false,
      "inputs": [],
      "name": "LogCanceled",
      "type": "event"
    },
    {
      "anonymous": false,
      "inputs": [
        {
          "indexed": false,
          "name": "description",
          "type": "string"
        }
      ],
      "name": "newMyOracleQuery",
      "type": "event"
    },
    {
      "anonymous": false,
      "inputs": [
        {
          "indexed": false,
          "name": "result",
          "type": "string"
        }
      ],
      "name": "Result",
      "type": "event"
    },
    {
      "constant": false,
      "inputs": [
        {
          "name": "result",
          "type": "string"
        }
      ],
      "name": "_callback",
      "outputs": [],
      "payable": false,
      "stateMutability": "nonpayable",
      "type": "function"
    },
    {
      "constant": true,
      "inputs": [],
      "name": "queryResult",
      "outputs": [
        {
          "name": "",
          "type": "string"
        }
      ],
      "payable": false,
      "stateMutability": "view",
      "type": "function"
    },
    {
      "constant": true,
      "inputs": [],
      "name": "getHighestBid",
      "outputs": [
        {
          "name": "",
          "type": "uint256"
        }
      ],
      "payable": false,
      "stateMutability": "view",
      "type": "function"
    },
    {
      "constant": false,
      "inputs": [],
      "name": "placeBid",
      "outputs": [
        {
          "name": "success",
          "type": "bool"
        }
      ],
      "payable": true,
      "stateMutability": "payable",
      "type": "function"
    },
    {
      "constant": false,
      "inputs": [],
      "name": "cancelAuction",
      "outputs": [
        {
          "name": "success",
          "type": "bool"
        }
      ],
      "payable": false,
      "stateMutability": "nonpayable",
      "type": "function"
    },
    {
      "constant": false,
      "inputs": [],
      "name": "withdraw",
      "outputs": [
        {
          "name": "success",
          "type": "bool"
        }
      ],
      "payable": false,
      "stateMutability": "nonpayable",
      "type": "function"
    }
  ],
  "bytecode": "0x60806040526000600d553480156200001657600080fd5b5060405162001ca938038062001ca9833981018060405260808110156200003c57600080fd5b8101908080519060200190929190805190602001909291908051906020019092919080516401000000008111156200007357600080fd5b828101905060208101848111156200008a57600080fd5b8151856001820283011164010000000082111715620000a857600080fd5b505092919050505083600260006101000a81548173ffffffffffffffffffffffffffffffffffffffff021916908373ffffffffffffffffffffffffffffffffffffffff160217905550826003819055508160058190555080600690805190602001906200011792919062000540565b50620001676040805190810160405280601681526020017f41206e65772041756374696f6e20737461727465642100000000000000000000815250620001fa640100000000026401000000009004565b600c6000600d54815260200190815260200160002090805190602001906200019192919062000540565b50600d600081548092919060010191905055507f7320fefbde31987714fd878b64cf8254ae37e7fee0ac90b214b00498cb9cae1f60405180806020018281038252603581526020018062001c746035913960400191505060405180910390a150505050620005ef565b6060600073ffffffffffffffffffffffffffffffffffffffff166000809054906101000a900473ffffffffffffffffffffffffffffffffffffffff1673ffffffffffffffffffffffffffffffffffffffff161415620003a957739431dba1450345b92d84980dc6eab81741624ba36000806101000a81548173ffffffffffffffffffffffffffffffffffffffff021916908373ffffffffffffffffffffffffffffffffffffffff1602179055506000809054906101000a900473ffffffffffffffffffffffffffffffffffffffff1673ffffffffffffffffffffffffffffffffffffffff1663b18b78dd6040518163ffffffff167c010000000000000000000000000000000000000000000000000000000002815260040160206040518083038186803b1580156200032b57600080fd5b505afa15801562000340573d6000803e3d6000fd5b505050506040513d60208110156200035757600080fd5b8101908080519060200190929190505050600160006101000a81548173ffffffffffffffffffffffffffffffffffffffff021916908373ffffffffffffffffffffffffffffffffffffffff1602179055505b600160009054906101000a900473ffffffffffffffffffffffffffffffffffffffff1673ffffffffffffffffffffffffffffffffffffffff16637c261929836040518263ffffffff167c01000000000000000000000000000000000000000000000000000000000281526004018080602001828103825283818151815260200191508051906020019080838360005b838110156200045557808201518184015260208101905062000438565b50505050905090810190601f168015620004835780820380516001836020036101000a031916815260200191505b5092505050600060405180830381600087803b158015620004a357600080fd5b505af1158015620004b8573d6000803e3d6000fd5b505050506040513d6000823e3d601f19601f820116820180604052506020811015620004e357600080fd5b810190808051640100000000811115620004fc57600080fd5b828101905060208101848111156200051357600080fd5b81518560018202830111640100000000821117156200053157600080fd5b50509291905050509050919050565b828054600181600116156101000203166002900490600052602060002090601f016020900481019282601f106200058357805160ff1916838001178555620005b4565b82800160010185558215620005b4579182015b82811115620005b357825182559160200191906001019062000596565b5b509050620005c39190620005c7565b5090565b620005ec91905b80821115620005e8576000816000905550600101620005ce565b5090565b90565b61167580620005ff6000396000f3fe608060405260043610610105576000357c0100000000000000000000000000000000000000000000000000000000900480638fa8b790116100a7578063ce10cf8011610076578063ce10cf8014610449578063ecfc7ecc146104ae578063f5b56c56146104d0578063f9e9e6b7146104fb57610105565b80638fa8b7901461030857806391f9015714610337578063b3cc167a1461038e578063c623674f146103b957610105565b806348cd4cb1116100e357806348cd4cb1146101935780634979440a146101be5780638da5cb5b146101e95780638ec064701461024057610105565b8063083c63231461010a5780633ccfd60b146101355780633f9942ff14610164575b600080fd5b34801561011657600080fd5b5061011f61058b565b6040518082815260200191505060405180910390f35b34801561014157600080fd5b5061014a610591565b604051808215151515815260200191505060405180910390f35b34801561017057600080fd5b50610179610a28565b604051808215151515815260200191505060405180910390f35b34801561019f57600080fd5b506101a8610a3b565b6040518082815260200191505060405180910390f35b3480156101ca57600080fd5b506101d3610a41565b6040518082815260200191505060405180910390f35b3480156101f557600080fd5b506101fe610aaa565b604051808273ffffffffffffffffffffffffffffffffffffffff1673ffffffffffffffffffffffffffffffffffffffff16815260200191505060405180910390f35b34801561024c57600080fd5b506103066004803603602081101561026357600080fd5b810190808035906020019064010000000081111561028057600080fd5b82018360208201111561029257600080fd5b803590602001918460018302840111640100000000831117156102b457600080fd5b91908080601f016020809104026020016040519081016040528093929190818152602001838380828437600081840152601f19601f820116905080830192505050505050509192919290505050610ad0565b005b34801561031457600080fd5b5061031d610b99565b604051808215151515815260200191505060405180910390f35b34801561034357600080fd5b5061034c610ce7565b604051808273ffffffffffffffffffffffffffffffffffffffff1673ffffffffffffffffffffffffffffffffffffffff16815260200191505060405180910390f35b34801561039a57600080fd5b506103a3610d0d565b6040518082815260200191505060405180910390f35b3480156103c557600080fd5b506103ce610d13565b6040518080602001828103825283818151815260200191508051906020019080838360005b8381101561040e5780820151818401526020810190506103f3565b50505050905090810190601f16801561043b5780820380516001836020036101000a031916815260200191505b509250505060405180910390f35b34801561045557600080fd5b506104986004803603602081101561046c57600080fd5b81019080803573ffffffffffffffffffffffffffffffffffffffff169060200190929190505050610db1565b6040518082815260200191505060405180910390f35b6104b6610dc9565b604051808215151515815260200191505060405180910390f35b3480156104dc57600080fd5b506104e5611194565b6040518082815260200191505060405180910390f35b34801561050757600080fd5b5061051061119a565b6040518080602001828103825283818151815260200191508051906020019080838360005b83811015610550578082015181840152602081019050610535565b50505050905090810190601f16801561057d5780820380516001836020036101000a031916815260200191505b509250505060405180910390f35b60055481565b6000600554431080156105b15750600760009054906101000a900460ff16155b156105bb57600080fd5b600080600760009054906101000a900460ff161561061d57339150600a60008373ffffffffffffffffffffffffffffffffffffffff1673ffffffffffffffffffffffffffffffffffffffff16815260200190815260200160002054905061086c565b600260009054906101000a900473ffffffffffffffffffffffffffffffffffffffff1673ffffffffffffffffffffffffffffffffffffffff163373ffffffffffffffffffffffffffffffffffffffff1614156106bd57600960009054906101000a900473ffffffffffffffffffffffffffffffffffffffff16915060085490506001600b60006101000a81548160ff02191690831515021790555061086b565b600960009054906101000a900473ffffffffffffffffffffffffffffffffffffffff1673ffffffffffffffffffffffffffffffffffffffff163373ffffffffffffffffffffffffffffffffffffffff16141561082457600960009054906101000a900473ffffffffffffffffffffffffffffffffffffffff169150600b60009054906101000a900460ff16156107b657600a6000600960009054906101000a900473ffffffffffffffffffffffffffffffffffffffff1673ffffffffffffffffffffffffffffffffffffffff1673ffffffffffffffffffffffffffffffffffffffff16815260200190815260200160002054905061081f565b600854600a6000600960009054906101000a900473ffffffffffffffffffffffffffffffffffffffff1673ffffffffffffffffffffffffffffffffffffffff1673ffffffffffffffffffffffffffffffffffffffff168152602001908152602001600020540390505b61086a565b339150600a60008373ffffffffffffffffffffffffffffffffffffffff1673ffffffffffffffffffffffffffffffffffffffff1681526020019081526020016000205490505b5b5b600081141561087a57600080fd5b80600a60008473ffffffffffffffffffffffffffffffffffffffff1673ffffffffffffffffffffffffffffffffffffffff168152602001908152602001600020600082825403925050819055503373ffffffffffffffffffffffffffffffffffffffff166108fc829081150290604051600060405180830381858888f19350505050151561090757600080fd5b7f0ec497a8ae5b1ba29c60470ef651def995fac3deebbdcc56c47a4e5f51a4c2bd338383604051808473ffffffffffffffffffffffffffffffffffffffff1673ffffffffffffffffffffffffffffffffffffffff1681526020018373ffffffffffffffffffffffffffffffffffffffff1673ffffffffffffffffffffffffffffffffffffffff168152602001828152602001935050505060405180910390a16109e46040805190810160405280601081526020017f52657475726e696e672046756e6473210000000000000000000000000000000081525061124f565b600c6000600d5481526020019081526020016000209080519060200190610a0c9291906115a4565b50600d6000815480929190600101919050555060019250505090565b600760009054906101000a900460ff1681565b60045481565b6000600a6000600960009054906101000a900473ffffffffffffffffffffffffffffffffffffffff1673ffffffffffffffffffffffffffffffffffffffff1673ffffffffffffffffffffffffffffffffffffffff16815260200190815260200160002054905090565b600260009054906101000a900473ffffffffffffffffffffffffffffffffffffffff1681565b80600c6000600d5481526020019081526020016000209080519060200190610af99291906115a4565b507ff5250111a819ab87d27490e1837d465f4bc000cfd9316fc90fde27c791d8026d816040518080602001828103825283818151815260200191508051906020019080838360005b83811015610b5c578082015181840152602081019050610b41565b50505050905090810190601f168015610b895780820380516001836020036101000a031916815260200191505b509250505060405180910390a150565b6000600260009054906101000a900473ffffffffffffffffffffffffffffffffffffffff1673ffffffffffffffffffffffffffffffffffffffff163373ffffffffffffffffffffffffffffffffffffffff16141515610bf757600080fd5b600554431115610c0657600080fd5b600760009054906101000a900460ff1615610c2057600080fd5b6001600760006101000a81548160ff021916908315150217905550610c796040805190810160405280601281526020017f41756374696f6e2069732063616e63656c21000000000000000000000000000081525061124f565b600c6000600d5481526020019081526020016000209080519060200190610ca19291906115a4565b50600d600081548092919060010191905055507f462b6ca7f632601af1295aeb320851f50e8e630a309173f23535845ea4bfb3b960405160405180910390a16001905090565b600960009054906101000a900473ffffffffffffffffffffffffffffffffffffffff1681565b60035481565b60068054600181600116156101000203166002900480601f016020809104026020016040519081016040528092919081815260200182805460018160011615610100020316600290048015610da95780601f10610d7e57610100808354040283529160200191610da9565b820191906000526020600020905b815481529060010190602001808311610d8c57829003601f168201915b505050505081565b600a6020528060005260406000206000915090505481565b6000600454431015610dda57600080fd5b600554431115610de957600080fd5b600760009054906101000a900460ff1615610e0357600080fd5b600260009054906101000a900473ffffffffffffffffffffffffffffffffffffffff1673ffffffffffffffffffffffffffffffffffffffff163373ffffffffffffffffffffffffffffffffffffffff161415610e5e57600080fd5b6000341415610e6c57600080fd5b600034600a60003373ffffffffffffffffffffffffffffffffffffffff1673ffffffffffffffffffffffffffffffffffffffff1681526020019081526020016000205401905060085481111515610ec257600080fd5b6000600a6000600960009054906101000a900473ffffffffffffffffffffffffffffffffffffffff1673ffffffffffffffffffffffffffffffffffffffff1673ffffffffffffffffffffffffffffffffffffffff16815260200190815260200160002054905081600a60003373ffffffffffffffffffffffffffffffffffffffff1673ffffffffffffffffffffffffffffffffffffffff168152602001908152602001600020819055508082111515610f8e57610f83600354830182611588565b60088190555061103f565b600960009054906101000a900473ffffffffffffffffffffffffffffffffffffffff1673ffffffffffffffffffffffffffffffffffffffff163373ffffffffffffffffffffffffffffffffffffffff1614151561103b5733600960006101000a81548173ffffffffffffffffffffffffffffffffffffffff021916908373ffffffffffffffffffffffffffffffffffffffff160217905550611034826003548301611588565b6008819055505b8190505b61107d6040805190810160405280600e81526020017f506c6163696e67204269642e2e2e00000000000000000000000000000000000081525061124f565b600c6000600d54815260200190815260200160002090805190602001906110a59291906115a4565b50600d600081548092919060010191905055507ff152f4ff5e488c55370a2d53925a55055228ebd8ec95bd0251bbb299e48786b03383600960009054906101000a900473ffffffffffffffffffffffffffffffffffffffff1684600854604051808673ffffffffffffffffffffffffffffffffffffffff1673ffffffffffffffffffffffffffffffffffffffff1681526020018581526020018473ffffffffffffffffffffffffffffffffffffffff1673ffffffffffffffffffffffffffffffffffffffff1681526020018381526020018281526020019550505050505060405180910390a160019250505090565b60085481565b6060600c6000600d5481526020019081526020016000208054600181600116156101000203166002900480601f0160208091040260200160405190810160405280929190818152602001828054600181600116156101000203166002900480156112455780601f1061121a57610100808354040283529160200191611245565b820191906000526020600020905b81548152906001019060200180831161122857829003601f168201915b5050505050905090565b6060600073ffffffffffffffffffffffffffffffffffffffff166000809054906101000a900473ffffffffffffffffffffffffffffffffffffffff1673ffffffffffffffffffffffffffffffffffffffff1614156113fa57739431dba1450345b92d84980dc6eab81741624ba36000806101000a81548173ffffffffffffffffffffffffffffffffffffffff021916908373ffffffffffffffffffffffffffffffffffffffff1602179055506000809054906101000a900473ffffffffffffffffffffffffffffffffffffffff1673ffffffffffffffffffffffffffffffffffffffff1663b18b78dd6040518163ffffffff167c010000000000000000000000000000000000000000000000000000000002815260040160206040518083038186803b15801561137e57600080fd5b505afa158015611392573d6000803e3d6000fd5b505050506040513d60208110156113a857600080fd5b8101908080519060200190929190505050600160006101000a81548173ffffffffffffffffffffffffffffffffffffffff021916908373ffffffffffffffffffffffffffffffffffffffff1602179055505b600160009054906101000a900473ffffffffffffffffffffffffffffffffffffffff1673ffffffffffffffffffffffffffffffffffffffff16637c261929836040518263ffffffff167c01000000000000000000000000000000000000000000000000000000000281526004018080602001828103825283818151815260200191508051906020019080838360005b838110156114a4578082015181840152602081019050611489565b50505050905090810190601f1680156114d15780820380516001836020036101000a031916815260200191505b5092505050600060405180830381600087803b1580156114f057600080fd5b505af1158015611504573d6000803e3d6000fd5b505050506040513d6000823e3d601f19601f82011682018060405250602081101561152e57600080fd5b81019080805164010000000081111561154657600080fd5b8281019050602081018481111561155c57600080fd5b815185600182028301116401000000008211171561157957600080fd5b50509291905050509050919050565b60008183101561159a5782905061159e565b8190505b92915050565b828054600181600116156101000203166002900490600052602060002090601f016020900481019282601f106115e557805160ff1916838001178555611613565b82800160010185558215611613579182015b828111156116125782518255916020019190600101906115f7565b5b5090506116209190611624565b5090565b61164691905b8082111561164257600081600090555060010161162a565b5090565b9056fea165627a7a72305820fef83f4d0d7499f3b47f6134613d51232881c8c2fab408d6ba2f378939a9e97400294d794f7261636c65207175657279207761732073656e742c207374616e64696e6720627920666f722074686520616e737765722e2e",
  "source": "pragma solidity ^0.5.2;\r\n\r\n// Oracle interface\r\ncontract Oracle {\r\n    address public cbAddress;\r\n    function query(string memory _query) public returns (string memory);\r\n}\r\n\r\n// OracleResolver interface\r\ncontract OracleResolver {\r\n    function getOracleAddress() pure public returns(address);\r\n}\r\n\r\n// 給dapp開發者使用的合約\r\ncontract UsingMyOracle {\r\n    OracleResolver resolver;\r\n    Oracle oracle;\r\n\r\n    modifier myOracleAPI {\r\n        if (address(resolver) == address(0)) {\r\n            // 指定OracleResolver的合約地址，要替換成你自己的\r\n            resolver = OracleResolver(0x9431dBA1450345B92d84980dc6EAB81741624ba3);\r\n            oracle = Oracle(resolver.getOracleAddress());\r\n        }\r\n        _;\r\n    }\r\n\r\n    function myOracleQuery(string memory _query) internal myOracleAPI returns(string memory\r\n    ) {\r\n        return oracle.query(_query);\r\n    }\r\n\r\n    function _callback(string memory result) public {\r\n        // do nothing, 只是確保Oracle有一個_callback可以使用\r\n    }\r\n}\r\n\r\n\r\ncontract Auction is UsingMyOracle{\r\n    // static\r\n    address public owner;\r\n    uint public bidIncrement;\r\n    uint public startBlock;\r\n    uint public endBlock;\r\n    string public ipfsHash;\r\n\r\n    // state\r\n    bool public canceled;\r\n    uint public highestBindingBid;\r\n    address public highestBidder;\r\n    mapping(address => uint256) public fundsByBidder;\r\n    bool ownerHasWithdrawn;\r\n\r\n    event LogBid(address bidder, uint bid, address highestBidder, uint highestBid, uint highestBindingBid);\r\n    event LogWithdrawal(address withdrawer, address withdrawalAccount, uint amount);\r\n    event LogCanceled();\r\n    mapping(uint => string) actions;\r\n    uint actionsIndex=0; \r\n\r\n    // 輔助的event，沒有也不影響功能\r\n    event newMyOracleQuery(string description);\r\n    event Result(string result);\r\n    \r\n\r\n    constructor (address _owner, uint _bidIncrement, uint _endBlock, string memory _ipfsHash) public{\r\n        owner = _owner;\r\n        bidIncrement = _bidIncrement;\r\n        endBlock = _endBlock;\r\n        ipfsHash = _ipfsHash;\r\n        actions[actionsIndex]=myOracleQuery(\"A new Auction started!\");\r\n        actionsIndex++;\r\n        emit newMyOracleQuery(\"MyOracle query was sent, standing by for the answer..\");\r\n    }\r\n    \r\n    \r\n    // override\r\n    function _callback( string memory result) public  {\r\n        actions[actionsIndex] = result;\r\n        emit Result(result);\r\n    }\r\n    \r\n    function queryResult() view public returns (string memory) {\r\n        return actions[actionsIndex];\r\n    }\r\n\r\n    function getHighestBid()public\r\n        view\r\n        returns (uint)\r\n    {\r\n        return fundsByBidder[highestBidder];\r\n    }\r\n\r\n    function placeBid()public\r\n        payable\r\n        onlyAfterStart\r\n        onlyBeforeEnd\r\n        onlyNotCanceled\r\n        onlyNotOwner\r\n        returns (bool success) \r\n    {\r\n        // reject payments of 0 ETH\r\n        if (msg.value == 0) revert();\r\n\r\n        // calculate the user's total bid based on the current amount they've sent to the contract\r\n        // plus whatever has been sent with this transaction\r\n        uint newBid = fundsByBidder[msg.sender] + msg.value;\r\n\r\n        // if the user isn't even willing to overbid the highest binding bid, there's nothing for us\r\n        // to do except revert the transaction.\r\n        if (newBid <= highestBindingBid) revert();\r\n\r\n        // grab the previous highest bid (before updating fundsByBidder, in case msg.sender is the\r\n        // highestBidder and is just increasing their maximum bid).\r\n        uint highestBid = fundsByBidder[highestBidder];\r\n\r\n        fundsByBidder[msg.sender] = newBid;\r\n\r\n        if (newBid <= highestBid) {\r\n            // if the user has overbid the highestBindingBid but not the highestBid, we simply\r\n            // increase the highestBindingBid and leave highestBidder alone.\r\n\r\n            // note that this case is impossible if msg.sender == highestBidder because you can never\r\n            // bid less ETH than you've already bid.\r\n\r\n            highestBindingBid = min(newBid + bidIncrement, highestBid);\r\n        } else {\r\n            // if msg.sender is already the highest bidder, they must simply be wanting to raise\r\n            // their maximum bid, in which case we shouldn't increase the highestBindingBid.\r\n\r\n            // if the user is NOT highestBidder, and has overbid highestBid completely, we set them\r\n            // as the new highestBidder and recalculate highestBindingBid.\r\n\r\n            if (msg.sender != highestBidder) {\r\n                highestBidder = msg.sender;\r\n                highestBindingBid = min(newBid, highestBid + bidIncrement);\r\n            }\r\n            highestBid = newBid;\r\n        }\r\n        actions[actionsIndex]=myOracleQuery(\"Placing Bid...\");\r\n        actionsIndex++;\r\n        emit LogBid(msg.sender, newBid, highestBidder, highestBid, highestBindingBid);\r\n        return true;\r\n    }\r\n\r\n    function min(uint a, uint b)\r\n        private\r\n        pure\r\n        returns (uint)\r\n    {\r\n        if (a < b) return a;\r\n        return b;\r\n    }\r\n\r\n    function cancelAuction()\r\n        onlyOwner\r\n        onlyBeforeEnd\r\n        onlyNotCanceled\r\n        public\r\n        returns (bool success)\r\n    {\r\n        canceled = true;\r\n        actions[actionsIndex]=myOracleQuery(\"Auction is cancel!\");\r\n        actionsIndex++;\r\n        emit LogCanceled();\r\n        return true;\r\n    }\r\n\r\n    function withdraw()\r\n        onlyEndedOrCanceled\r\n        public\r\n        returns (bool success)\r\n    {\r\n        address withdrawalAccount;\r\n        uint withdrawalAmount;\r\n\r\n        if (canceled) {\r\n            // if the auction was canceled, everyone should simply be allowed to withdraw their funds\r\n            withdrawalAccount = msg.sender;\r\n            withdrawalAmount = fundsByBidder[withdrawalAccount];\r\n\r\n\r\n        } else {\r\n            // the auction finished without being canceled\r\n\r\n            if (msg.sender == owner) {\r\n                // the auction's owner should be allowed to withdraw the highestBindingBid\r\n                withdrawalAccount = highestBidder;\r\n                withdrawalAmount = highestBindingBid;\r\n                ownerHasWithdrawn = true;\r\n\r\n            } else if (msg.sender == highestBidder) {\r\n                // the highest bidder should only be allowed to withdraw the difference between their\r\n                // highest bid and the highestBindingBid\r\n                withdrawalAccount = highestBidder;\r\n                if (ownerHasWithdrawn) {\r\n                    withdrawalAmount = fundsByBidder[highestBidder];\r\n                } else {\r\n                    withdrawalAmount = fundsByBidder[highestBidder] - highestBindingBid;\r\n                }\r\n\r\n            } else {\r\n                // anyone who participated but did not win the auction should be allowed to withdraw\r\n                // the full amount of their funds\r\n                withdrawalAccount = msg.sender;\r\n                withdrawalAmount = fundsByBidder[withdrawalAccount];\r\n            }\r\n        }\r\n\r\n        if (withdrawalAmount == 0) revert();\r\n\r\n        fundsByBidder[withdrawalAccount] -= withdrawalAmount;\r\n\r\n        // send the funds\r\n        if (!msg.sender.send(withdrawalAmount)) revert();\r\n\r\n        emit LogWithdrawal(msg.sender, withdrawalAccount, withdrawalAmount);\r\n        actions[actionsIndex]=myOracleQuery(\"Returning Funds!\");\r\n        actionsIndex++;\r\n        return true;\r\n    }\r\n\r\n    modifier onlyOwner {\r\n        if (msg.sender != owner) revert();\r\n        _;\r\n    }\r\n\r\n    modifier onlyNotOwner {\r\n        if (msg.sender == owner) revert();\r\n        _;\r\n    }\r\n\r\n    modifier onlyAfterStart {\r\n        if (block.number < startBlock) revert();\r\n        _;\r\n    }\r\n\r\n    modifier onlyBeforeEnd {\r\n        if (block.number > endBlock) revert();\r\n        _;\r\n    }\r\n\r\n    modifier onlyNotCanceled {\r\n        if (canceled) revert();\r\n        _;\r\n    }\r\n\r\n    modifier onlyEndedOrCanceled {\r\n        if (block.number < endBlock && !canceled) revert();\r\n        _;\r\n    }\r\n}",
  "sourcePath": "C:\\Users\\node\\Desktop\\pjpj\\code\\contracts\\Auction.sol",
  "compiler": {
    "name": "solc",
    "version": "0.5.2+commit.1df8f40c.Emscripten.clang"
  },
  "schemaVersion": "3.0.6",
  "updatedAt": "2019-04-23T08:35:34.055Z",
  "devdoc": {
    "methods": {}
  },
  "userdoc": {
    "methods": {}
  }
}