{
  "contractName": "Oracle",
  "abi": [
    {
      "inputs": [],
      "payable": false,
      "stateMutability": "nonpayable",
      "type": "constructor",
      "signature": "constructor"
    },
    {
      "anonymous": false,
      "inputs": [
        {
          "indexed": false,
          "name": "",
          "type": "uint256"
        }
      ],
      "name": "newAuction",
      "type": "event",
      "signature": "0xda83fc749f1dad2f8cdb0a38a3844a5da2f6da5554025c13adf3ecc8127d0f1e"
    },
    {
      "anonymous": false,
      "inputs": [
        {
          "indexed": false,
          "name": "",
          "type": "string"
        }
      ],
      "name": "newAuctionName",
      "type": "event",
      "signature": "0x29067b8d51b7fbf8c25e5080d1b46b80c4d9d9556c53e2856f91682c2a914d76"
    },
    {
      "anonymous": false,
      "inputs": [
        {
          "indexed": false,
          "name": "",
          "type": "uint256"
        },
        {
          "indexed": false,
          "name": "",
          "type": "string"
        }
      ],
      "name": "newAuctionBoth",
      "type": "event",
      "signature": "0x381fcc6aebe0fe9a2e57cea0983549219af75a8f856fd2f7057cdef5ab4fc18a"
    },
    {
      "anonymous": false,
      "inputs": [
        {
          "indexed": false,
          "name": "",
          "type": "address"
        },
        {
          "indexed": false,
          "name": "",
          "type": "string"
        },
        {
          "indexed": false,
          "name": "",
          "type": "uint256"
        }
      ],
      "name": "newMsg",
      "type": "event",
      "signature": "0x5e6762dff00a09def078a5bf97b8d896958672c0bf1261ec960ef52f2546a2d1"
    },
    {
      "anonymous": false,
      "inputs": [
        {
          "indexed": false,
          "name": "",
          "type": "uint256"
        }
      ],
      "name": "QueryAuctionsNum",
      "type": "event",
      "signature": "0x00a52ccd609ec1daa6522f23f6349e0e0080898275dc83df55c85885b09a8794"
    },
    {
      "anonymous": false,
      "inputs": [
        {
          "indexed": false,
          "name": "",
          "type": "address"
        },
        {
          "indexed": false,
          "name": "",
          "type": "string"
        },
        {
          "indexed": false,
          "name": "",
          "type": "uint256"
        }
      ],
      "name": "QueryMsg",
      "type": "event",
      "signature": "0x6670de1b87487df9a9f547fc43fe1c426fd03998c5b249a291a1db27085389b5"
    },
    {
      "anonymous": false,
      "inputs": [
        {
          "indexed": false,
          "name": "",
          "type": "uint256"
        }
      ],
      "name": "QueryMsgNum",
      "type": "event",
      "signature": "0x9b7179d68dc911aba55c25a758e7a1c6e7a58714ee689267b962017d5393bb9a"
    },
    {
      "anonymous": false,
      "inputs": [
        {
          "indexed": false,
          "name": "",
          "type": "uint256"
        }
      ],
      "name": "QueryAuctions",
      "type": "event",
      "signature": "0xbd2b6ecb8e0369c8e37fdea7d293250ab9b2d5314aa6c14ed6e2b482d230164c"
    },
    {
      "anonymous": false,
      "inputs": [
        {
          "indexed": false,
          "name": "",
          "type": "uint256"
        }
      ],
      "name": "checkMSGNUM",
      "type": "event",
      "signature": "0x60da3e50c8782c9d6427b1ccbd19b4a9511f1b2bd46792f2291ec37cda0a57da"
    },
    {
      "anonymous": false,
      "inputs": [
        {
          "indexed": false,
          "name": "",
          "type": "uint256"
        }
      ],
      "name": "checkMSGNUM2222",
      "type": "event",
      "signature": "0x9e1c6a4b648e0f422765847f57f5e7d856163215fdf58e7b1ec0aafc3d5d59a3"
    },
    {
      "constant": false,
      "inputs": [
        {
          "name": "_cbAddress",
          "type": "address"
        }
      ],
      "name": "setCbAddress",
      "outputs": [],
      "payable": false,
      "stateMutability": "nonpayable",
      "type": "function",
      "signature": "0xb62a717c"
    },
    {
      "constant": false,
      "inputs": [
        {
          "name": "_sender",
          "type": "address"
        },
        {
          "name": "_operation",
          "type": "string"
        },
        {
          "name": "auctionID",
          "type": "uint256"
        }
      ],
      "name": "operationCallback",
      "outputs": [
        {
          "name": "",
          "type": "uint256"
        }
      ],
      "payable": false,
      "stateMutability": "nonpayable",
      "type": "function",
      "signature": "0x6b7e3696"
    },
    {
      "constant": false,
      "inputs": [
        {
          "name": "auction",
          "type": "uint256"
        },
        {
          "name": "name",
          "type": "string"
        }
      ],
      "name": "newAuctionCallback",
      "outputs": [],
      "payable": false,
      "stateMutability": "nonpayable",
      "type": "function",
      "signature": "0x90f52a3b"
    },
    {
      "constant": false,
      "inputs": [
        {
          "name": "index",
          "type": "uint256"
        }
      ],
      "name": "getAuction",
      "outputs": [
        {
          "name": "",
          "type": "uint256"
        }
      ],
      "payable": false,
      "stateMutability": "nonpayable",
      "type": "function",
      "signature": "0x78bd7935"
    },
    {
      "constant": false,
      "inputs": [],
      "name": "getNumOfAuction",
      "outputs": [
        {
          "name": "",
          "type": "uint256"
        }
      ],
      "payable": false,
      "stateMutability": "nonpayable",
      "type": "function",
      "signature": "0x638862ee"
    },
    {
      "constant": false,
      "inputs": [
        {
          "name": "index",
          "type": "uint256"
        }
      ],
      "name": "getOperation",
      "outputs": [
        {
          "name": "",
          "type": "string"
        }
      ],
      "payable": false,
      "stateMutability": "nonpayable",
      "type": "function",
      "signature": "0x202e3924"
    },
    {
      "constant": false,
      "inputs": [],
      "name": "getNumOfOperation",
      "outputs": [
        {
          "name": "",
          "type": "uint256"
        }
      ],
      "payable": false,
      "stateMutability": "nonpayable",
      "type": "function",
      "signature": "0xe821cb8c"
    }
  ],
  "bytecode": "0x6080604052336000806101000a81548173ffffffffffffffffffffffffffffffffffffffff021916908373ffffffffffffffffffffffffffffffffffffffff1602179055506000600255600060045534801561005a57600080fd5b50610c388061006a6000396000f3fe608060405234801561001057600080fd5b506004361061009a576000357c01000000000000000000000000000000000000000000000000000000009004806378bd79351161007857806378bd79351461021b57806390f52a3b1461025d578063b62a717c146102e0578063e821cb8c146103245761009a565b8063202e39241461009f578063638862ee146101465780636b7e369614610164575b600080fd5b6100cb600480360360208110156100b557600080fd5b8101908080359060200190929190505050610342565b6040518080602001828103825283818151815260200191508051906020019080838360005b8381101561010b5780820151818401526020810190506100f0565b50505050905090810190601f1680156101385780820380516001836020036101000a031916815260200191505b509250505060405180910390f35b61014e610550565b6040518082815260200191505060405180910390f35b6102056004803603606081101561017a57600080fd5b81019080803573ffffffffffffffffffffffffffffffffffffffff169060200190929190803590602001906401000000008111156101b757600080fd5b8201836020820111156101c957600080fd5b803590602001918460018302840111640100000000831117156101eb57600080fd5b909192939192939080359060200190929190505050610598565b6040518082815260200191505060405180910390f35b6102476004803603602081101561023157600080fd5b81019080803590602001909291905050506108fd565b6040518082815260200191505060405180910390f35b6102de6004803603604081101561027357600080fd5b81019080803590602001909291908035906020019064010000000081111561029a57600080fd5b8201836020820111156102ac57600080fd5b803590602001918460018302840111640100000000831117156102ce57600080fd5b909192939192939050505061096c565b005b610322600480360360208110156102f657600080fd5b81019080803573ffffffffffffffffffffffffffffffffffffffff169060200190929190505050610aa2565b005b61032c610ae6565b6040518082815260200191505060405180910390f35b60607f6670de1b87487df9a9f547fc43fe1c426fd03998c5b249a291a1db27085389b56005600084815260200190815260200160002060000160009054906101000a900473ffffffffffffffffffffffffffffffffffffffff16600560008581526020019081526020016000206002016005600086815260200190815260200160002060010154604051808473ffffffffffffffffffffffffffffffffffffffff1673ffffffffffffffffffffffffffffffffffffffff1681526020018060200183815260200182810382528481815460018160011615610100020316600290048152602001915080546001816001161561010002031660029004801561048a5780601f1061045f5761010080835404028352916020019161048a565b820191906000526020600020905b81548152906001019060200180831161046d57829003601f168201915b505094505050505060405180910390a1600560008381526020019081526020016000206002018054600181600116156101000203166002900480601f0160208091040260200160405190810160405280929190818152602001828054600181600116156101000203166002900480156105445780601f1061051957610100808354040283529160200191610544565b820191906000526020600020905b81548152906001019060200180831161052757829003601f168201915b50505050509050919050565b60007ea52ccd609ec1daa6522f23f6349e0e0080898275dc83df55c85885b09a87946003805490506040518082815260200191505060405180910390a1600380549050905090565b60006105a2610b29565b85816000019073ffffffffffffffffffffffffffffffffffffffff16908173ffffffffffffffffffffffffffffffffffffffff16815250508281602001818152505084848080601f016020809104026020016040519081016040528093929190818152602001838380828437600081840152601f19601f8201169050808301925050505050505081604001819052508060056000600254815260200190815260200160002060008201518160000160006101000a81548173ffffffffffffffffffffffffffffffffffffffff021916908373ffffffffffffffffffffffffffffffffffffffff1602179055506020820151816001015560408201518160020190805190602001906106b4929190610b67565b50606082015181600301559050506004600081548092919060010191905055506000809054906101000a900473ffffffffffffffffffffffffffffffffffffffff1673ffffffffffffffffffffffffffffffffffffffff163373ffffffffffffffffffffffffffffffffffffffff161415801561073d5750600060026004548161073a57fe5b06145b15610755576002600081548092919060010191905055505b7f60da3e50c8782c9d6427b1ccbd19b4a9511f1b2bd46792f2291ec37cda0a57da6002546040518082815260200191505060405180910390a1600254600660003373ffffffffffffffffffffffffffffffffffffffff1673ffffffffffffffffffffffffffffffffffffffff168152602001908152602001600020600301819055507f5e6762dff00a09def078a5bf97b8d896958672c0bf1261ec960ef52f2546a2d186868686604051808573ffffffffffffffffffffffffffffffffffffffff1673ffffffffffffffffffffffffffffffffffffffff168152602001806020018381526020018281038252858582818152602001925080828437600081840152601f19601f8201169050808301925050509550505050505060405180910390a17f9e1c6a4b648e0f422765847f57f5e7d856163215fdf58e7b1ec0aafc3d5d59a36002546040518082815260200191505060405180910390a1600660003373ffffffffffffffffffffffffffffffffffffffff1673ffffffffffffffffffffffffffffffffffffffff16815260200190815260200160002060030154915050949350505050565b60007fbd2b6ecb8e0369c8e37fdea7d293250ab9b2d5314aa6c14ed6e2b482d230164c6003838154811061092d57fe5b90600052602060002001546040518082815260200191505060405180910390a16003828154811061095a57fe5b90600052602060002001549050919050565b60038390806001815401808255809150509060018203906000526020600020016000909192909190915055507fda83fc749f1dad2f8cdb0a38a3844a5da2f6da5554025c13adf3ecc8127d0f1e836040518082815260200191505060405180910390a17f29067b8d51b7fbf8c25e5080d1b46b80c4d9d9556c53e2856f91682c2a914d76828260405180806020018281038252848482818152602001925080828437600081840152601f19601f820116905080830192505050935050505060405180910390a17f381fcc6aebe0fe9a2e57cea0983549219af75a8f856fd2f7057cdef5ab4fc18a83838360405180848152602001806020018281038252848482818152602001925080828437600081840152601f19601f82011690508083019250505094505050505060405180910390a1505050565b80600160006101000a81548173ffffffffffffffffffffffffffffffffffffffff021916908373ffffffffffffffffffffffffffffffffffffffff16021790555050565b60007f9b7179d68dc911aba55c25a758e7a1c6e7a58714ee689267b962017d5393bb9a6002546040518082815260200191505060405180910390a1600254905090565b6040518060800160405280600073ffffffffffffffffffffffffffffffffffffffff1681526020016000815260200160608152602001600081525090565b828054600181600116156101000203166002900490600052602060002090601f016020900481019282601f10610ba857805160ff1916838001178555610bd6565b82800160010185558215610bd6579182015b82811115610bd5578251825591602001919060010190610bba565b5b509050610be39190610be7565b5090565b610c0991905b80821115610c05576000816000905550600101610bed565b5090565b9056fea165627a7a7230582079217f1c68595a42f3360abf538c7af5da00fb9d559dfb3aa5ae225eee4a86c80029",
  "source": "pragma solidity ^0.5.7;\r\n\r\ncontract Oracle {\r\n    address owner= msg.sender;\r\n    address cbAddress; // callback address\r\n    uint messagesNum = 0;\r\n    uint[] Auctions;\r\n    uint count=0;\r\n\r\n    struct Msg{\r\n        address sender;\r\n        uint auction;\r\n        string operation;\r\n        uint Auctioncnt;\r\n    }\r\n    mapping(uint=>Msg) Msgs;\r\n    mapping (address=>Msg) tmpmsgs;\r\n    \r\n    event newAuction(uint);\r\n    event newAuctionName(string);\r\n    event newAuctionBoth(uint,string);\r\n\r\n    event newMsg(address,string, uint);\r\n    event QueryAuctionsNum(uint);\r\n    event QueryMsg(address, string , uint);\r\n    event QueryMsgNum(uint);\r\n    event QueryAuctions(uint);\r\n\r\n    event checkMSGNUM(uint);\r\n    event checkMSGNUM2222(uint);\r\n\r\n\r\n    constructor ()public  {}\r\n\r\n    function setCbAddress(address _cbAddress) external {\r\n        cbAddress = _cbAddress;\r\n    }\r\n    \r\n    function operationCallback(address _sender, string calldata _operation, uint auctionID)external returns (uint){\r\n        Msg memory m;\r\n        m.sender=_sender;\r\n        m.auction = auctionID;\r\n        m.operation = _operation;\r\n        Msgs[messagesNum]=m;\r\n        \r\n        count++;\r\n        if (msg.sender != owner && count%2==0)\r\n        {\r\n            messagesNum++;\r\n        }\r\n        \r\n        emit checkMSGNUM(messagesNum);\r\n        \r\n        tmpmsgs[msg.sender].Auctioncnt = messagesNum;\r\n        emit newMsg(_sender, _operation, auctionID);\r\n        \r\n        emit checkMSGNUM2222(messagesNum);\r\n        \r\n        return tmpmsgs[msg.sender].Auctioncnt;\r\n    }\r\n    \r\n    function newAuctionCallback(uint auction, string calldata name)external{\r\n        Auctions.push(auction);\r\n        emit newAuction(auction);\r\n        emit newAuctionName(name);\r\n        \r\n        emit newAuctionBoth(auction,name);\r\n    }\r\n    \r\n    function getAuction(uint index)external returns(uint){\r\n        emit QueryAuctions(Auctions[index]);\r\n        \r\n        return Auctions[index];\r\n    }\r\n    \r\n    function getNumOfAuction()external returns(uint){\r\n        emit QueryAuctionsNum(Auctions.length);\r\n        return Auctions.length;\r\n\r\n    }\r\n    \r\n    function getOperation(uint index)external returns(string memory){\r\n        emit QueryMsg(Msgs[index].sender,Msgs[index].operation,Msgs[index].auction);\r\n        return Msgs[index].operation;\r\n    }\r\n\r\n    function getNumOfOperation ()external returns(uint){\r\n        emit QueryMsgNum(messagesNum);\r\n        return messagesNum;\r\n    }\r\n    \r\n}\r\n",
  "sourcePath": "C:\\Users\\node\\Desktop\\pjpj\\code\\contracts\\Oracle.sol",
  "compiler": {
    "name": "solc",
    "version": "0.5.7+commit.6da8b019.Emscripten.clang"
  },
  "schemaVersion": "3.0.6",
  "updatedAt": "2019-04-26T10:16:36.441Z",
  "devdoc": {
    "methods": {}
  },
  "userdoc": {
    "methods": {}
  }
}